{
  "_format": "hh-sol-artifact-1",
  "contractName": "EasyAsset",
  "sourceName": "contracts/EasyAsset.sol",
  "abi": [
    {
      "inputs": [
        {
          "internalType": "string",
          "name": "_name",
          "type": "string"
        },
        {
          "internalType": "string",
          "name": "_symbol",
          "type": "string"
        }
      ],
      "stateMutability": "nonpayable",
      "type": "constructor"
    },
    {
      "anonymous": false,
      "inputs": [
        {
          "indexed": false,
          "internalType": "address",
          "name": "buyer",
          "type": "address"
        },
        {
          "indexed": false,
          "internalType": "address",
          "name": "seller",
          "type": "address"
        },
        {
          "indexed": false,
          "internalType": "uint256",
          "name": "timestamp",
          "type": "uint256"
        },
        {
          "indexed": false,
          "internalType": "uint256",
          "name": "amount",
          "type": "uint256"
        },
        {
          "indexed": false,
          "internalType": "bool",
          "name": "paid",
          "type": "bool"
        }
      ],
      "name": "Action",
      "type": "event"
    },
    {
      "anonymous": false,
      "inputs": [
        {
          "indexed": true,
          "internalType": "address",
          "name": "owner",
          "type": "address"
        },
        {
          "indexed": true,
          "internalType": "address",
          "name": "approved",
          "type": "address"
        },
        {
          "indexed": true,
          "internalType": "uint256",
          "name": "tokenId",
          "type": "uint256"
        }
      ],
      "name": "Approval",
      "type": "event"
    },
    {
      "anonymous": false,
      "inputs": [
        {
          "indexed": true,
          "internalType": "address",
          "name": "owner",
          "type": "address"
        },
        {
          "indexed": true,
          "internalType": "address",
          "name": "operator",
          "type": "address"
        },
        {
          "indexed": false,
          "internalType": "bool",
          "name": "approved",
          "type": "bool"
        }
      ],
      "name": "ApprovalForAll",
      "type": "event"
    },
    {
      "anonymous": false,
      "inputs": [
        {
          "indexed": true,
          "internalType": "address",
          "name": "from",
          "type": "address"
        },
        {
          "indexed": true,
          "internalType": "address",
          "name": "to",
          "type": "address"
        },
        {
          "indexed": true,
          "internalType": "uint256",
          "name": "tokenId",
          "type": "uint256"
        }
      ],
      "name": "Transfer",
      "type": "event"
    },
    {
      "anonymous": false,
      "inputs": [
        {
          "indexed": false,
          "internalType": "address",
          "name": "owner",
          "type": "address"
        },
        {
          "indexed": true,
          "internalType": "uint256",
          "name": "id",
          "type": "uint256"
        },
        {
          "indexed": false,
          "internalType": "string",
          "name": "credential",
          "type": "string"
        },
        {
          "indexed": false,
          "internalType": "uint256",
          "name": "timestamp",
          "type": "uint256"
        },
        {
          "indexed": false,
          "internalType": "uint256",
          "name": "price",
          "type": "uint256"
        }
      ],
      "name": "assetCreation",
      "type": "event"
    },
    {
      "anonymous": false,
      "inputs": [
        {
          "indexed": false,
          "internalType": "address",
          "name": "from",
          "type": "address"
        },
        {
          "indexed": false,
          "internalType": "address",
          "name": "to",
          "type": "address"
        },
        {
          "indexed": false,
          "internalType": "uint256",
          "name": "tokenId",
          "type": "uint256"
        },
        {
          "indexed": false,
          "internalType": "string",
          "name": "credential",
          "type": "string"
        },
        {
          "indexed": false,
          "internalType": "uint256",
          "name": "timestamp",
          "type": "uint256"
        }
      ],
      "name": "assetTransfer",
      "type": "event"
    },
    {
      "anonymous": false,
      "inputs": [
        {
          "indexed": false,
          "internalType": "enum EasyAsset.assetStatus",
          "name": "",
          "type": "uint8"
        },
        {
          "indexed": false,
          "internalType": "enum EasyAsset.assetStatus",
          "name": "",
          "type": "uint8"
        }
      ],
      "name": "refundAction",
      "type": "event"
    },
    {
      "inputs": [
        {
          "internalType": "uint256",
          "name": "id",
          "type": "uint256"
        }
      ],
      "name": "Probe",
      "outputs": [],
      "stateMutability": "nonpayable",
      "type": "function"
    },
    {
      "inputs": [
        {
          "internalType": "uint256",
          "name": "_age",
          "type": "uint256"
        },
        {
          "internalType": "uint256",
          "name": "_nationalId",
          "type": "uint256"
        },
        {
          "internalType": "string",
          "name": "_phonenumber",
          "type": "string"
        },
        {
          "internalType": "string",
          "name": "_firstName",
          "type": "string"
        }
      ],
      "name": "_registerUser",
      "outputs": [],
      "stateMutability": "nonpayable",
      "type": "function"
    },
    {
      "inputs": [
        {
          "internalType": "uint256",
          "name": "_age",
          "type": "uint256"
        },
        {
          "internalType": "uint256",
          "name": "_nationalId",
          "type": "uint256"
        },
        {
          "internalType": "string",
          "name": "_phonenumber",
          "type": "string"
        },
        {
          "internalType": "string",
          "name": "_firstName",
          "type": "string"
        }
      ],
      "name": "_verifyUser",
      "outputs": [],
      "stateMutability": "nonpayable",
      "type": "function"
    },
    {
      "inputs": [
        {
          "internalType": "address",
          "name": "to",
          "type": "address"
        },
        {
          "internalType": "uint256",
          "name": "tokenId",
          "type": "uint256"
        }
      ],
      "name": "approve",
      "outputs": [],
      "stateMutability": "nonpayable",
      "type": "function"
    },
    {
      "inputs": [
        {
          "internalType": "uint256",
          "name": "",
          "type": "uint256"
        }
      ],
      "name": "assetArray",
      "outputs": [
        {
          "internalType": "bool",
          "name": "probe",
          "type": "bool"
        },
        {
          "internalType": "bool",
          "name": "bought",
          "type": "bool"
        },
        {
          "internalType": "enum EasyAsset.assetStatus",
          "name": "status",
          "type": "uint8"
        },
        {
          "internalType": "uint256",
          "name": "timestamp",
          "type": "uint256"
        },
        {
          "internalType": "uint256",
          "name": "price",
          "type": "uint256"
        },
        {
          "internalType": "uint256",
          "name": "id",
          "type": "uint256"
        },
        {
          "internalType": "address",
          "name": "seller",
          "type": "address"
        },
        {
          "internalType": "string",
          "name": "title",
          "type": "string"
        },
        {
          "internalType": "string",
          "name": "description",
          "type": "string"
        },
        {
          "internalType": "string",
          "name": "credential",
          "type": "string"
        }
      ],
      "stateMutability": "view",
      "type": "function"
    },
    {
      "inputs": [
        {
          "internalType": "address",
          "name": "owner",
          "type": "address"
        }
      ],
      "name": "balanceOf",
      "outputs": [
        {
          "internalType": "uint256",
          "name": "",
          "type": "uint256"
        }
      ],
      "stateMutability": "view",
      "type": "function"
    },
    {
      "inputs": [
        {
          "internalType": "uint256",
          "name": "id",
          "type": "uint256"
        }
      ],
      "name": "buyAsset",
      "outputs": [],
      "stateMutability": "payable",
      "type": "function"
    },
    {
      "inputs": [
        {
          "internalType": "uint256",
          "name": "",
          "type": "uint256"
        }
      ],
      "name": "buyerMap",
      "outputs": [
        {
          "internalType": "enum EasyAsset.assetStatus",
          "name": "status",
          "type": "uint8"
        },
        {
          "internalType": "uint256",
          "name": "id",
          "type": "uint256"
        },
        {
          "internalType": "uint256",
          "name": "amountpaid",
          "type": "uint256"
        },
        {
          "internalType": "uint256",
          "name": "timestamp",
          "type": "uint256"
        },
        {
          "internalType": "bool",
          "name": "paid",
          "type": "bool"
        },
        {
          "internalType": "bool",
          "name": "checked",
          "type": "bool"
        },
        {
          "internalType": "address",
          "name": "owner",
          "type": "address"
        },
        {
          "internalType": "string",
          "name": "credential",
          "type": "string"
        }
      ],
      "stateMutability": "view",
      "type": "function"
    },
    {
      "inputs": [
        {
          "internalType": "uint256",
          "name": "id",
          "type": "uint256"
        }
      ],
      "name": "confirm",
      "outputs": [],
      "stateMutability": "nonpayable",
      "type": "function"
    },
    {
      "inputs": [
        {
          "internalType": "string",
          "name": "title",
          "type": "string"
        },
        {
          "internalType": "string",
          "name": "description",
          "type": "string"
        },
        {
          "internalType": "string",
          "name": "credential",
          "type": "string"
        },
        {
          "internalType": "uint256",
          "name": "price",
          "type": "uint256"
        }
      ],
      "name": "createAsset",
      "outputs": [
        {
          "internalType": "bool",
          "name": "",
          "type": "bool"
        }
      ],
      "stateMutability": "nonpayable",
      "type": "function"
    },
    {
      "inputs": [
        {
          "internalType": "uint256",
          "name": "tokenId",
          "type": "uint256"
        }
      ],
      "name": "getApproved",
      "outputs": [
        {
          "internalType": "address",
          "name": "",
          "type": "address"
        }
      ],
      "stateMutability": "view",
      "type": "function"
    },
    {
      "inputs": [],
      "name": "getAssets",
      "outputs": [
        {
          "components": [
            {
              "internalType": "bool",
              "name": "probe",
              "type": "bool"
            },
            {
              "internalType": "bool",
              "name": "bought",
              "type": "bool"
            },
            {
              "internalType": "enum EasyAsset.assetStatus",
              "name": "status",
              "type": "uint8"
            },
            {
              "internalType": "uint256",
              "name": "timestamp",
              "type": "uint256"
            },
            {
              "internalType": "uint256",
              "name": "price",
              "type": "uint256"
            },
            {
              "internalType": "uint256",
              "name": "id",
              "type": "uint256"
            },
            {
              "internalType": "address",
              "name": "seller",
              "type": "address"
            },
            {
              "internalType": "string",
              "name": "title",
              "type": "string"
            },
            {
              "internalType": "string",
              "name": "description",
              "type": "string"
            },
            {
              "internalType": "string",
              "name": "credential",
              "type": "string"
            }
          ],
          "internalType": "struct EasyAsset.Asset[]",
          "name": "",
          "type": "tuple[]"
        }
      ],
      "stateMutability": "view",
      "type": "function"
    },
    {
      "inputs": [
        {
          "internalType": "uint256",
          "name": "_id",
          "type": "uint256"
        }
      ],
      "name": "getRefundedBuyers",
      "outputs": [
        {
          "components": [
            {
              "internalType": "enum EasyAsset.assetStatus",
              "name": "status",
              "type": "uint8"
            },
            {
              "internalType": "uint256",
              "name": "id",
              "type": "uint256"
            },
            {
              "internalType": "uint256",
              "name": "amountpaid",
              "type": "uint256"
            },
            {
              "internalType": "uint256",
              "name": "timestamp",
              "type": "uint256"
            },
            {
              "internalType": "bool",
              "name": "paid",
              "type": "bool"
            },
            {
              "internalType": "bool",
              "name": "checked",
              "type": "bool"
            },
            {
              "internalType": "address",
              "name": "owner",
              "type": "address"
            },
            {
              "internalType": "string",
              "name": "credential",
              "type": "string"
            }
          ],
          "internalType": "struct EasyAsset.buyer",
          "name": "",
          "type": "tuple"
        }
      ],
      "stateMutability": "view",
      "type": "function"
    },
    {
      "inputs": [
        {
          "internalType": "address",
          "name": "owner",
          "type": "address"
        },
        {
          "internalType": "address",
          "name": "operator",
          "type": "address"
        }
      ],
      "name": "isApprovedForAll",
      "outputs": [
        {
          "internalType": "bool",
          "name": "",
          "type": "bool"
        }
      ],
      "stateMutability": "view",
      "type": "function"
    },
    {
      "inputs": [],
      "name": "name",
      "outputs": [
        {
          "internalType": "string",
          "name": "",
          "type": "string"
        }
      ],
      "stateMutability": "view",
      "type": "function"
    },
    {
      "inputs": [],
      "name": "owner",
      "outputs": [
        {
          "internalType": "address",
          "name": "",
          "type": "address"
        }
      ],
      "stateMutability": "view",
      "type": "function"
    },
    {
      "inputs": [
        {
          "internalType": "uint256",
          "name": "tokenId",
          "type": "uint256"
        }
      ],
      "name": "ownerOf",
      "outputs": [
        {
          "internalType": "address",
          "name": "",
          "type": "address"
        }
      ],
      "stateMutability": "view",
      "type": "function"
    },
    {
      "inputs": [
        {
          "internalType": "uint256",
          "name": "id",
          "type": "uint256"
        }
      ],
      "name": "refund",
      "outputs": [],
      "stateMutability": "nonpayable",
      "type": "function"
    },
    {
      "inputs": [
        {
          "internalType": "uint256",
          "name": "id",
          "type": "uint256"
        }
      ],
      "name": "releaseAsset",
      "outputs": [],
      "stateMutability": "nonpayable",
      "type": "function"
    },
    {
      "inputs": [
        {
          "internalType": "address",
          "name": "from",
          "type": "address"
        },
        {
          "internalType": "address",
          "name": "to",
          "type": "address"
        },
        {
          "internalType": "uint256",
          "name": "tokenId",
          "type": "uint256"
        }
      ],
      "name": "safeTransferFrom",
      "outputs": [],
      "stateMutability": "nonpayable",
      "type": "function"
    },
    {
      "inputs": [
        {
          "internalType": "address",
          "name": "from",
          "type": "address"
        },
        {
          "internalType": "address",
          "name": "to",
          "type": "address"
        },
        {
          "internalType": "uint256",
          "name": "tokenId",
          "type": "uint256"
        },
        {
          "internalType": "bytes",
          "name": "data",
          "type": "bytes"
        }
      ],
      "name": "safeTransferFrom",
      "outputs": [],
      "stateMutability": "nonpayable",
      "type": "function"
    },
    {
      "inputs": [
        {
          "internalType": "address",
          "name": "operator",
          "type": "address"
        },
        {
          "internalType": "bool",
          "name": "approved",
          "type": "bool"
        }
      ],
      "name": "setApprovalForAll",
      "outputs": [],
      "stateMutability": "nonpayable",
      "type": "function"
    },
    {
      "inputs": [
        {
          "internalType": "bytes4",
          "name": "interfaceId",
          "type": "bytes4"
        }
      ],
      "name": "supportsInterface",
      "outputs": [
        {
          "internalType": "bool",
          "name": "",
          "type": "bool"
        }
      ],
      "stateMutability": "view",
      "type": "function"
    },
    {
      "inputs": [],
      "name": "symbol",
      "outputs": [
        {
          "internalType": "string",
          "name": "",
          "type": "string"
        }
      ],
      "stateMutability": "view",
      "type": "function"
    },
    {
      "inputs": [
        {
          "internalType": "uint256",
          "name": "tokenId",
          "type": "uint256"
        }
      ],
      "name": "tokenURI",
      "outputs": [
        {
          "internalType": "string",
          "name": "",
          "type": "string"
        }
      ],
      "stateMutability": "view",
      "type": "function"
    },
    {
      "inputs": [
        {
          "internalType": "address",
          "name": "from",
          "type": "address"
        },
        {
          "internalType": "address",
          "name": "to",
          "type": "address"
        },
        {
          "internalType": "uint256",
          "name": "tokenId",
          "type": "uint256"
        }
      ],
      "name": "transferFrom",
      "outputs": [],
      "stateMutability": "nonpayable",
      "type": "function"
    },
    {
      "inputs": [
        {
          "internalType": "uint256",
          "name": "",
          "type": "uint256"
        }
      ],
      "name": "usersDetail",
      "outputs": [
        {
          "internalType": "uint256",
          "name": "age",
          "type": "uint256"
        },
        {
          "internalType": "uint256",
          "name": "nationalId",
          "type": "uint256"
        },
        {
          "internalType": "string",
          "name": "phonenumber",
          "type": "string"
        },
        {
          "internalType": "string",
          "name": "firstName",
          "type": "string"
        }
      ],
      "stateMutability": "view",
      "type": "function"
    },
    {
      "inputs": [
        {
          "internalType": "address",
          "name": "",
          "type": "address"
        }
      ],
      "name": "verified",
      "outputs": [
        {
          "internalType": "bool",
          "name": "",
          "type": "bool"
        }
      ],
      "stateMutability": "view",
      "type": "function"
    }
  ],
  "bytecode": "0x60806040523480156200001157600080fd5b50604051620065a0380380620065a0833981810160405281019062000037919062000243565b818181600090816200004a919062000513565b5080600190816200005c919062000513565b505050600160068190555033600760006101000a81548173ffffffffffffffffffffffffffffffffffffffff021916908373ffffffffffffffffffffffffffffffffffffffff1602179055505050620005fa565b6000604051905090565b600080fd5b600080fd5b600080fd5b600080fd5b6000601f19601f8301169050919050565b7f4e487b7100000000000000000000000000000000000000000000000000000000600052604160045260246000fd5b6200011982620000ce565b810181811067ffffffffffffffff821117156200013b576200013a620000df565b5b80604052505050565b600062000150620000b0565b90506200015e82826200010e565b919050565b600067ffffffffffffffff821115620001815762000180620000df565b5b6200018c82620000ce565b9050602081019050919050565b60005b83811015620001b95780820151818401526020810190506200019c565b60008484015250505050565b6000620001dc620001d68462000163565b62000144565b905082815260208101848484011115620001fb57620001fa620000c9565b5b6200020884828562000199565b509392505050565b600082601f830112620002285762000227620000c4565b5b81516200023a848260208601620001c5565b91505092915050565b600080604083850312156200025d576200025c620000ba565b5b600083015167ffffffffffffffff8111156200027e576200027d620000bf565b5b6200028c8582860162000210565b925050602083015167ffffffffffffffff811115620002b057620002af620000bf565b5b620002be8582860162000210565b9150509250929050565b600081519050919050565b7f4e487b7100000000000000000000000000000000000000000000000000000000600052602260045260246000fd5b600060028204905060018216806200031b57607f821691505b602082108103620003315762000330620002d3565b5b50919050565b60008190508160005260206000209050919050565b60006020601f8301049050919050565b600082821b905092915050565b6000600883026200039b7fffffffffffffffffffffffffffffffffffffffffffffffffffffffffffffffff826200035c565b620003a786836200035c565b95508019841693508086168417925050509392505050565b6000819050919050565b6000819050919050565b6000620003f4620003ee620003e884620003bf565b620003c9565b620003bf565b9050919050565b6000819050919050565b6200041083620003d3565b620004286200041f82620003fb565b84845462000369565b825550505050565b600090565b6200043f62000430565b6200044c81848462000405565b505050565b5b8181101562000474576200046860008262000435565b60018101905062000452565b5050565b601f821115620004c3576200048d8162000337565b62000498846200034c565b81016020851015620004a8578190505b620004c0620004b7856200034c565b83018262000451565b50505b505050565b600082821c905092915050565b6000620004e860001984600802620004c8565b1980831691505092915050565b6000620005038383620004d5565b9150826002028217905092915050565b6200051e82620002c8565b67ffffffffffffffff8111156200053a5762000539620000df565b5b62000546825462000302565b6200055382828562000478565b600060209050601f8311600181146200058b576000841562000576578287015190505b620005828582620004f5565b865550620005f2565b601f1984166200059b8662000337565b60005b82811015620005c5578489015182556001820191506020850194506020810190506200059e565b86831015620005e55784890151620005e1601f891682620004d5565b8355505b6001600288020188555050505b505050505050565b615f96806200060a6000396000f3fe6080604052600436106101b75760003560e01c806367e4ac2c116100ec578063ba0179b51161008a578063df023a3111610064578063df023a311461064a578063e86dad2914610673578063e985e9c5146106b9578063fa8c7d2c146106f6576101b7565b8063ba0179b5146105bb578063c26e82f5146105e4578063c87b56dd1461060d576101b7565b80639010ce97116100c65780639010ce971461051557806395d89b411461053e578063a22cb46514610569578063b88d4fde14610592576101b7565b806367e4ac2c1461048257806370a08231146104ad5780638da5cb5b146104ea576101b7565b806323b872dd1161015957806342842e0e1161013357806342842e0e1461039b5780634dcfd945146103c45780635f719633146104015780636352211e14610445576101b7565b806323b872dd1461030c578063278ecde114610335578063369d81381461035e576101b7565b8063081812fc11610195578063081812fc1461024d578063095ea7b31461028a5780630db065f4146102b3578063110d35b8146102f0576101b7565b806301ffc9a7146101bc57806304e98cef146101f957806306fdde0314610222575b600080fd5b3480156101c857600080fd5b506101e360048036038101906101de9190613d1a565b610736565b6040516101f09190613d62565b60405180910390f35b34801561020557600080fd5b50610220600480360381019061021b9190613db3565b610818565b005b34801561022e57600080fd5b506102376109da565b6040516102449190613e70565b60405180910390f35b34801561025957600080fd5b50610274600480360381019061026f9190613db3565b610a6c565b6040516102819190613ed3565b60405180910390f35b34801561029657600080fd5b506102b160048036038101906102ac9190613f1a565b610ab2565b005b3480156102bf57600080fd5b506102da60048036038101906102d59190613f5a565b610bc9565b6040516102e79190613d62565b60405180910390f35b61030a60048036038101906103059190613db3565b610be9565b005b34801561031857600080fd5b50610333600480360381019061032e9190613f87565b611026565b005b34801561034157600080fd5b5061035c60048036038101906103579190613db3565b611086565b005b34801561036a57600080fd5b506103856004803603810190610380919061403f565b6113e7565b6040516103929190613d62565b60405180910390f35b3480156103a757600080fd5b506103c260048036038101906103bd9190613f87565b611896565b005b3480156103d057600080fd5b506103eb60048036038101906103e69190613db3565b6118b6565b6040516103f891906142a6565b60405180910390f35b34801561040d57600080fd5b5061042860048036038101906104239190613db3565b611a5b565b60405161043c9897969594939291906142e6565b60405180910390f35b34801561045157600080fd5b5061046c60048036038101906104679190613db3565b611b72565b6040516104799190613ed3565b60405180910390f35b34801561048e57600080fd5b50610497611bf8565b6040516104a49190614515565b60405180910390f35b3480156104b957600080fd5b506104d460048036038101906104cf9190613f5a565b611ef3565b6040516104e19190614537565b60405180910390f35b3480156104f657600080fd5b506104ff611faa565b60405161050c9190613ed3565b60405180910390f35b34801561052157600080fd5b5061053c60048036038101906105379190613db3565b611fd0565b005b34801561054a57600080fd5b50610553612115565b6040516105609190613e70565b60405180910390f35b34801561057557600080fd5b50610590600480360381019061058b919061457e565b6121a7565b005b34801561059e57600080fd5b506105b960048036038101906105b491906146ee565b6121bd565b005b3480156105c757600080fd5b506105e260048036038101906105dd9190613db3565b61221f565b005b3480156105f057600080fd5b5061060b60048036038101906106069190614771565b612571565b005b34801561061957600080fd5b50610634600480360381019061062f9190613db3565b61275d565b6040516106419190613e70565b60405180910390f35b34801561065657600080fd5b50610671600480360381019061066c9190614771565b6127c5565b005b34801561067f57600080fd5b5061069a60048036038101906106959190613db3565b61294e565b6040516106b09a99989796959493929190614818565b60405180910390f35b3480156106c557600080fd5b506106e060048036038101906106db91906148c9565b612b91565b6040516106ed9190613d62565b60405180910390f35b34801561070257600080fd5b5061071d60048036038101906107189190613db3565b612c25565b60405161072d9493929190614909565b60405180910390f35b60007f80ac58cd000000000000000000000000000000000000000000000000000000007bffffffffffffffffffffffffffffffffffffffffffffffffffffffff1916827bffffffffffffffffffffffffffffffffffffffffffffffffffffffff1916148061080157507f5b5e139f000000000000000000000000000000000000000000000000000000007bffffffffffffffffffffffffffffffffffffffffffffffffffffffff1916827bffffffffffffffffffffffffffffffffffffffffffffffffffffffff1916145b80610811575061081082612d65565b5b9050919050565b600760009054906101000a900473ffffffffffffffffffffffffffffffffffffffff1673ffffffffffffffffffffffffffffffffffffffff163373ffffffffffffffffffffffffffffffffffffffff161480156108a55750600e81815481106108845761088361495c565b5b906000526020600020906008020160000160009054906101000a900460ff16155b6108e4576040517f08c379a00000000000000000000000000000000000000000000000000000000081526004016108db906149fd565b60405180910390fd5b6000600e82815481106108fa576108f961495c565b5b9060005260206000209060080201905060018160000160006101000a81548160ff0219169083151502179055506001600481111561093b5761093a614108565b5b8160000160029054906101000a900460ff16600481111561095f5761095e614108565b5b036109a9576109a8600b600084815260200190815260200160002060040160029054906101000a900473ffffffffffffffffffffffffffffffffffffffff168260020154612dcf565b5b60028160000160026101000a81548160ff021916908360048111156109d1576109d0614108565b5b02179055505050565b6060600080546109e990614a4c565b80601f0160208091040260200160405190810160405280929190818152602001828054610a1590614a4c565b8015610a625780601f10610a3757610100808354040283529160200191610a62565b820191906000526020600020905b815481529060010190602001808311610a4557829003601f168201915b5050505050905090565b6000610a7782612e80565b6004600083815260200190815260200160002060009054906101000a900473ffffffffffffffffffffffffffffffffffffffff169050919050565b6000610abd82611b72565b90508073ffffffffffffffffffffffffffffffffffffffff168373ffffffffffffffffffffffffffffffffffffffff1603610b2d576040517f08c379a0000000000000000000000000000000000000000000000000000000008152600401610b2490614aef565b60405180910390fd5b8073ffffffffffffffffffffffffffffffffffffffff16610b4c612ecb565b73ffffffffffffffffffffffffffffffffffffffff161480610b7b5750610b7a81610b75612ecb565b612b91565b5b610bba576040517f08c379a0000000000000000000000000000000000000000000000000000000008152600401610bb190614b81565b60405180910390fd5b610bc48383612ed3565b505050565b600d6020528060005260406000206000915054906101000a900460ff1681565b610bf1612f8c565b6000600e8281548110610c0757610c0661495c565b5b9060005260206000209060080201905060006004811115610c2b57610c2a614108565b5b8160000160029054906101000a900460ff166004811115610c4f57610c4e614108565b5b14610c8f576040517f08c379a0000000000000000000000000000000000000000000000000000000008152600401610c8690614bed565b60405180910390fd5b8060040160009054906101000a900473ffffffffffffffffffffffffffffffffffffffff1673ffffffffffffffffffffffffffffffffffffffff163373ffffffffffffffffffffffffffffffffffffffff1614158015610cf25750806002015434145b610d31576040517f08c379a0000000000000000000000000000000000000000000000000000000008152600401610d2890614c7f565b60405180910390fd5b60011515600d60003373ffffffffffffffffffffffffffffffffffffffff1673ffffffffffffffffffffffffffffffffffffffff16815260200190815260200160002060009054906101000a900460ff161515148015610dae57506008600083815260200190815260200160002060009054906101000a900460ff165b610ded576040517f08c379a0000000000000000000000000000000000000000000000000000000008152600401610de490614ceb565b60405180910390fd5b600060405180610100016040528060016004811115610e0f57610e0e614108565b5b81526020018481526020013481526020014281526020016001151581526020016000151581526020013373ffffffffffffffffffffffffffffffffffffffff16815260200160405180602001604052806000815250815250905080600b600085815260200190815260200160002060008201518160000160006101000a81548160ff02191690836004811115610ea857610ea7614108565b5b021790555060208201518160010155604082015181600201556060820151816003015560808201518160040160006101000a81548160ff02191690831515021790555060a08201518160040160016101000a81548160ff02191690831515021790555060c08201518160040160026101000a81548173ffffffffffffffffffffffffffffffffffffffff021916908373ffffffffffffffffffffffffffffffffffffffff16021790555060e0820151816005019081610f679190614eb7565b5090505060018260000160016101000a81548160ff02191690831515021790555060018260000160026101000a81548160ff02191690836004811115610fb057610faf614108565b5b02179055507f2018a69277a3b64014d178d92da02c971e68f2f7d89f996327e9757f49c433ba338360040160009054906101000a900473ffffffffffffffffffffffffffffffffffffffff1642346001604051611011959493929190614f89565b60405180910390a15050611023612fdb565b50565b611037611031612ecb565b82612fe5565b611076576040517f08c379a000000000000000000000000000000000000000000000000000000000815260040161106d9061504e565b60405180910390fd5b61108183838361307a565b505050565b6000600b600083815260200190815260200160002090506000600e83815481106110b3576110b261495c565b5b906000526020600020906008020190508160040160029054906101000a900473ffffffffffffffffffffffffffffffffffffffff1673ffffffffffffffffffffffffffffffffffffffff163373ffffffffffffffffffffffffffffffffffffffff1614801561115757506001600481111561113157611130614108565b5b8260000160009054906101000a900460ff16600481111561115557611154614108565b5b145b611196576040517f08c379a000000000000000000000000000000000000000000000000000000000815260040161118d906150e0565b60405180910390fd5b60038260000160006101000a81548160ff021916908360048111156111be576111bd614108565b5b021790555081600a60008581526020019081526020016000206000820160009054906101000a900460ff168160000160006101000a81548160ff0219169083600481111561120f5761120e614108565b5b02179055506001820154816001015560028201548160020155600382015481600301556004820160009054906101000a900460ff168160040160006101000a81548160ff0219169083151502179055506004820160019054906101000a900460ff168160040160016101000a81548160ff0219169083151502179055506004820160029054906101000a900473ffffffffffffffffffffffffffffffffffffffff168160040160026101000a81548173ffffffffffffffffffffffffffffffffffffffff021916908373ffffffffffffffffffffffffffffffffffffffff160217905550600582018160050190816113079190615116565b5090505061133d8260040160029054906101000a900473ffffffffffffffffffffffffffffffffffffffff168260020154612dcf565b60008160000160016101000a81548160ff02191690831515021790555060008160000160026101000a81548160ff0219169083600481111561138257611381614108565b5b02179055507f84d7f04dfb80e682ae7d14070ec2154d4184eae42887cb5fe7747d6ccbadc21c8160000160029054906101000a900460ff168360000160009054906101000a900460ff166040516113da9291906151fe565b60405180910390a1505050565b600060011515600d60003373ffffffffffffffffffffffffffffffffffffffff1673ffffffffffffffffffffffffffffffffffffffff16815260200190815260200160002060009054906101000a900460ff1615151461147c576040517f08c379a000000000000000000000000000000000000000000000000000000000815260040161147390615273565b60405180910390fd5b60011515600d60003373ffffffffffffffffffffffffffffffffffffffff1673ffffffffffffffffffffffffffffffffffffffff16815260200190815260200160002060009054906101000a900460ff1615151480156115075750600984846040516114e99291906152c3565b908152602001604051809103902060009054906101000a900460ff16155b611546576040517f08c379a000000000000000000000000000000000000000000000000000000000815260040161153d90615273565b60405180910390fd5b6000600e805490509050600e6040518061014001604052806000151581526020016000151581526020016000600481111561158457611583614108565b5b81526020014281526020018581526020018381526020013373ffffffffffffffffffffffffffffffffffffffff1681526020018b8b8080601f016020809104026020016040519081016040528093929190818152602001838380828437600081840152601f19601f82011690508083019250505050505050815260200189898080601f016020809104026020016040519081016040528093929190818152602001838380828437600081840152601f19601f82011690508083019250505050505050815260200187878080601f016020809104026020016040519081016040528093929190818152602001838380828437600081840152601f19601f82011690508083019250505050505050815250908060018154018082558091505060019003906000526020600020906008020160009091909190915060008201518160000160006101000a81548160ff02191690831515021790555060208201518160000160016101000a81548160ff02191690831515021790555060408201518160000160026101000a81548160ff0219169083600481111561172757611726614108565b5b0217905550606082015181600101556080820151816002015560a0820151816003015560c08201518160040160006101000a81548173ffffffffffffffffffffffffffffffffffffffff021916908373ffffffffffffffffffffffffffffffffffffffff16021790555060e08201518160050190816117a69190614eb7565b506101008201518160060190816117bd9190614eb7565b506101208201518160070190816117d49190614eb7565b5050506001600986866040516117eb9291906152c3565b908152602001604051809103902060006101000a81548160ff02191690831515021790555060016008600083815260200190815260200160002060006101000a81548160ff021916908315150217905550807f1bd34f5070969faf7c075ecf37c24f973b7c3a11714bbb362e90c5284f96cf5b3387874288604051611874959493929190615309565b60405180910390a26118863382613373565b6001915050979650505050505050565b6118b1838383604051806020016040528060008152506121bd565b505050565b6118be613c3d565b600a6000838152602001908152602001600020604051806101000160405290816000820160009054906101000a900460ff16600481111561190257611901614108565b5b600481111561191457611913614108565b5b81526020016001820154815260200160028201548152602001600382015481526020016004820160009054906101000a900460ff161515151581526020016004820160019054906101000a900460ff161515151581526020016004820160029054906101000a900473ffffffffffffffffffffffffffffffffffffffff1673ffffffffffffffffffffffffffffffffffffffff1673ffffffffffffffffffffffffffffffffffffffff1681526020016005820180546119d290614a4c565b80601f01602080910402602001604051908101604052809291908181526020018280546119fe90614a4c565b8015611a4b5780601f10611a2057610100808354040283529160200191611a4b565b820191906000526020600020905b815481529060010190602001808311611a2e57829003601f168201915b5050505050815250509050919050565b600b6020528060005260406000206000915090508060000160009054906101000a900460ff16908060010154908060020154908060030154908060040160009054906101000a900460ff16908060040160019054906101000a900460ff16908060040160029054906101000a900473ffffffffffffffffffffffffffffffffffffffff1690806005018054611aef90614a4c565b80601f0160208091040260200160405190810160405280929190818152602001828054611b1b90614a4c565b8015611b685780601f10611b3d57610100808354040283529160200191611b68565b820191906000526020600020905b815481529060010190602001808311611b4b57829003601f168201915b5050505050905088565b600080611b7e83613391565b9050600073ffffffffffffffffffffffffffffffffffffffff168173ffffffffffffffffffffffffffffffffffffffff1603611bef576040517f08c379a0000000000000000000000000000000000000000000000000000000008152600401611be6906153a3565b60405180910390fd5b80915050919050565b6060600e805480602002602001604051908101604052809291908181526020016000905b82821015611eea5783829060005260206000209060080201604051806101400160405290816000820160009054906101000a900460ff161515151581526020016000820160019054906101000a900460ff161515151581526020016000820160029054906101000a900460ff166004811115611c9b57611c9a614108565b5b6004811115611cad57611cac614108565b5b81526020016001820154815260200160028201548152602001600382015481526020016004820160009054906101000a900473ffffffffffffffffffffffffffffffffffffffff1673ffffffffffffffffffffffffffffffffffffffff1673ffffffffffffffffffffffffffffffffffffffff168152602001600582018054611d3590614a4c565b80601f0160208091040260200160405190810160405280929190818152602001828054611d6190614a4c565b8015611dae5780601f10611d8357610100808354040283529160200191611dae565b820191906000526020600020905b815481529060010190602001808311611d9157829003601f168201915b50505050508152602001600682018054611dc790614a4c565b80601f0160208091040260200160405190810160405280929190818152602001828054611df390614a4c565b8015611e405780601f10611e1557610100808354040283529160200191611e40565b820191906000526020600020905b815481529060010190602001808311611e2357829003601f168201915b50505050508152602001600782018054611e5990614a4c565b80601f0160208091040260200160405190810160405280929190818152602001828054611e8590614a4c565b8015611ed25780601f10611ea757610100808354040283529160200191611ed2565b820191906000526020600020905b815481529060010190602001808311611eb557829003601f168201915b50505050508152505081526020019060010190611c1c565b50505050905090565b60008073ffffffffffffffffffffffffffffffffffffffff168273ffffffffffffffffffffffffffffffffffffffff1603611f63576040517f08c379a0000000000000000000000000000000000000000000000000000000008152600401611f5a90615435565b60405180910390fd5b600360008373ffffffffffffffffffffffffffffffffffffffff1673ffffffffffffffffffffffffffffffffffffffff168152602001908152602001600020549050919050565b600760009054906101000a900473ffffffffffffffffffffffffffffffffffffffff1681565b6000600e8281548110611fe657611fe561495c565b5b90600052602060002090600802019050600760009054906101000a900473ffffffffffffffffffffffffffffffffffffffff1673ffffffffffffffffffffffffffffffffffffffff163373ffffffffffffffffffffffffffffffffffffffff1614801561208857506002600481111561206257612061614108565b5b8160000160029054906101000a900460ff16600481111561208657612085614108565b5b145b6120c7576040517f08c379a00000000000000000000000000000000000000000000000000000000081526004016120be906154a1565b60405180910390fd5b60008160000160006101000a81548160ff02191690831515021790555060008160000160026101000a81548160ff0219169083600481111561210c5761210b614108565b5b02179055505050565b60606001805461212490614a4c565b80601f016020809104026020016040519081016040528092919081815260200182805461215090614a4c565b801561219d5780601f106121725761010080835404028352916020019161219d565b820191906000526020600020905b81548152906001019060200180831161218057829003601f168201915b5050505050905090565b6121b96121b2612ecb565b83836133ce565b5050565b6121ce6121c8612ecb565b83612fe5565b61220d576040517f08c379a00000000000000000000000000000000000000000000000000000000081526004016122049061504e565b60405180910390fd5b6122198484848461353a565b50505050565b6000600e82815481106122355761223461495c565b5b906000526020600020906008020190506000600b60008481526020019081526020016000209050600160048111156122705761226f614108565b5b8260000160029054906101000a900460ff16600481111561229457612293614108565b5b1480156122be57506008600084815260200190815260200160002060009054906101000a900460ff165b6122fd576040517f08c379a00000000000000000000000000000000000000000000000000000000081526004016122f49061550d565b60405180910390fd5b8060040160029054906101000a900473ffffffffffffffffffffffffffffffffffffffff1673ffffffffffffffffffffffffffffffffffffffff163373ffffffffffffffffffffffffffffffffffffffff1614801561236b57508060040160019054906101000a900460ff16155b6123aa576040517f08c379a00000000000000000000000000000000000000000000000000000000081526004016123a19061559f565b60405180910390fd5b60018160040160016101000a81548160ff0219169083151502179055506123f98260040160009054906101000a900473ffffffffffffffffffffffffffffffffffffffff168360020154612dcf565b60048260000160026101000a81548160ff0219169083600481111561242157612420614108565b5b02179055506124598260040160009054906101000a900473ffffffffffffffffffffffffffffffffffffffff1633846003015461307a565b8160070181600501908161246d91906155ea565b50338260040160006101000a81548173ffffffffffffffffffffffffffffffffffffffff021916908373ffffffffffffffffffffffffffffffffffffffff1602179055507f8eac340af35af673875d62f0b4eeaa6928b83ecb2f0f45ef9b6d1cba38b006618260040160009054906101000a900473ffffffffffffffffffffffffffffffffffffffff168260040160029054906101000a900473ffffffffffffffffffffffffffffffffffffffff1684600301548460050142604051612537959493929190615756565b60405180910390a160048160000160006101000a81548160ff0219169083600481111561256757612566614108565b5b0217905550505050565b600d60003373ffffffffffffffffffffffffffffffffffffffff1673ffffffffffffffffffffffffffffffffffffffff16815260200190815260200160002060009054906101000a900460ff16156125fe576040517f08c379a00000000000000000000000000000000000000000000000000000000081526004016125f5906157fc565b60405180910390fd5b604051806080016040528087815260200186815260200185858080601f016020809104026020016040519081016040528093929190818152602001838380828437600081840152601f19601f82011690508083019250505050505050815260200183838080601f016020809104026020016040519081016040528093929190818152602001838380828437600081840152601f19601f82011690508083019250505050505050815250600c6000878152602001908152602001600020600082015181600001556020820151816001015560408201518160020190816126e39190614eb7565b5060608201518160030190816126f99190614eb7565b509050506000600d60003373ffffffffffffffffffffffffffffffffffffffff1673ffffffffffffffffffffffffffffffffffffffff16815260200190815260200160002060006101000a81548160ff021916908315150217905550505050505050565b606061276882612e80565b6000612772613596565b9050600081511161279257604051806020016040528060008152506127bd565b8061279c846135ad565b6040516020016127ad92919061584d565b6040516020818303038152906040525b915050919050565b6000600c6000878152602001908152602001600020905085816001015414612822576040517f08c379a0000000000000000000000000000000000000000000000000000000008152600401612819906158bd565b60405180910390fd5b848460405161283292919061590d565b60405180910390208160020160405161284b91906159be565b604051809103902014801561288e5750828260405161286b92919061590d565b60405180910390208160030160405161288491906159be565b6040518091039020145b801561289d5750868160000154145b80156128ae57506012816000015410155b6128ed576040517f08c379a00000000000000000000000000000000000000000000000000000000081526004016128e490615a21565b60405180910390fd5b6001600d60003373ffffffffffffffffffffffffffffffffffffffff1673ffffffffffffffffffffffffffffffffffffffff16815260200190815260200160002060006101000a81548160ff02191690831515021790555050505050505050565b600e818154811061295e57600080fd5b90600052602060002090600802016000915090508060000160009054906101000a900460ff16908060000160019054906101000a900460ff16908060000160029054906101000a900460ff16908060010154908060020154908060030154908060040160009054906101000a900473ffffffffffffffffffffffffffffffffffffffff16908060050180546129f290614a4c565b80601f0160208091040260200160405190810160405280929190818152602001828054612a1e90614a4c565b8015612a6b5780601f10612a4057610100808354040283529160200191612a6b565b820191906000526020600020905b815481529060010190602001808311612a4e57829003601f168201915b505050505090806006018054612a8090614a4c565b80601f0160208091040260200160405190810160405280929190818152602001828054612aac90614a4c565b8015612af95780601f10612ace57610100808354040283529160200191612af9565b820191906000526020600020905b815481529060010190602001808311612adc57829003601f168201915b505050505090806007018054612b0e90614a4c565b80601f0160208091040260200160405190810160405280929190818152602001828054612b3a90614a4c565b8015612b875780601f10612b5c57610100808354040283529160200191612b87565b820191906000526020600020905b815481529060010190602001808311612b6a57829003601f168201915b505050505090508a565b6000600560008473ffffffffffffffffffffffffffffffffffffffff1673ffffffffffffffffffffffffffffffffffffffff16815260200190815260200160002060008373ffffffffffffffffffffffffffffffffffffffff1673ffffffffffffffffffffffffffffffffffffffff16815260200190815260200160002060009054906101000a900460ff16905092915050565b600c602052806000526040600020600091509050806000015490806001015490806002018054612c5490614a4c565b80601f0160208091040260200160405190810160405280929190818152602001828054612c8090614a4c565b8015612ccd5780601f10612ca257610100808354040283529160200191612ccd565b820191906000526020600020905b815481529060010190602001808311612cb057829003601f168201915b505050505090806003018054612ce290614a4c565b80601f0160208091040260200160405190810160405280929190818152602001828054612d0e90614a4c565b8015612d5b5780601f10612d3057610100808354040283529160200191612d5b565b820191906000526020600020905b815481529060010190602001808311612d3e57829003601f168201915b5050505050905084565b60007f01ffc9a7000000000000000000000000000000000000000000000000000000007bffffffffffffffffffffffffffffffffffffffffffffffffffffffff1916827bffffffffffffffffffffffffffffffffffffffffffffffffffffffff1916149050919050565b60008273ffffffffffffffffffffffffffffffffffffffff1682604051612df590615a67565b60006040518083038185875af1925050503d8060008114612e32576040519150601f19603f3d011682016040523d82523d6000602084013e612e37565b606091505b5050905080612e7b576040517f08c379a0000000000000000000000000000000000000000000000000000000008152600401612e7290615ac8565b60405180910390fd5b505050565b612e898161367b565b612ec8576040517f08c379a0000000000000000000000000000000000000000000000000000000008152600401612ebf906153a3565b60405180910390fd5b50565b600033905090565b816004600083815260200190815260200160002060006101000a81548173ffffffffffffffffffffffffffffffffffffffff021916908373ffffffffffffffffffffffffffffffffffffffff160217905550808273ffffffffffffffffffffffffffffffffffffffff16612f4683611b72565b73ffffffffffffffffffffffffffffffffffffffff167f8c5be1e5ebec7d5bd14f71427d1e84f3dd0314c0f7b2291e5b200ac8c7c3b92560405160405180910390a45050565b600260065403612fd1576040517f08c379a0000000000000000000000000000000000000000000000000000000008152600401612fc890615b34565b60405180910390fd5b6002600681905550565b6001600681905550565b600080612ff183611b72565b90508073ffffffffffffffffffffffffffffffffffffffff168473ffffffffffffffffffffffffffffffffffffffff16148061303357506130328185612b91565b5b8061307157508373ffffffffffffffffffffffffffffffffffffffff1661305984610a6c565b73ffffffffffffffffffffffffffffffffffffffff16145b91505092915050565b8273ffffffffffffffffffffffffffffffffffffffff1661309a82611b72565b73ffffffffffffffffffffffffffffffffffffffff16146130f0576040517f08c379a00000000000000000000000000000000000000000000000000000000081526004016130e790615bc6565b60405180910390fd5b600073ffffffffffffffffffffffffffffffffffffffff168273ffffffffffffffffffffffffffffffffffffffff160361315f576040517f08c379a000000000000000000000000000000000000000000000000000000000815260040161315690615c58565b60405180910390fd5b61316c83838360016136bc565b8273ffffffffffffffffffffffffffffffffffffffff1661318c82611b72565b73ffffffffffffffffffffffffffffffffffffffff16146131e2576040517f08c379a00000000000000000000000000000000000000000000000000000000081526004016131d990615bc6565b60405180910390fd5b6004600082815260200190815260200160002060006101000a81549073ffffffffffffffffffffffffffffffffffffffff02191690556001600360008573ffffffffffffffffffffffffffffffffffffffff1673ffffffffffffffffffffffffffffffffffffffff168152602001908152602001600020600082825403925050819055506001600360008473ffffffffffffffffffffffffffffffffffffffff1673ffffffffffffffffffffffffffffffffffffffff16815260200190815260200160002060008282540192505081905550816002600083815260200190815260200160002060006101000a81548173ffffffffffffffffffffffffffffffffffffffff021916908373ffffffffffffffffffffffffffffffffffffffff160217905550808273ffffffffffffffffffffffffffffffffffffffff168473ffffffffffffffffffffffffffffffffffffffff167fddf252ad1be2c89b69c2b068fc378daa952ba7f163c4a11628f55a4df523b3ef60405160405180910390a461336e83838360016136c2565b505050565b61338d8282604051806020016040528060008152506136c8565b5050565b60006002600083815260200190815260200160002060009054906101000a900473ffffffffffffffffffffffffffffffffffffffff169050919050565b8173ffffffffffffffffffffffffffffffffffffffff168373ffffffffffffffffffffffffffffffffffffffff160361343c576040517f08c379a000000000000000000000000000000000000000000000000000000000815260040161343390615cc4565b60405180910390fd5b80600560008573ffffffffffffffffffffffffffffffffffffffff1673ffffffffffffffffffffffffffffffffffffffff16815260200190815260200160002060008473ffffffffffffffffffffffffffffffffffffffff1673ffffffffffffffffffffffffffffffffffffffff16815260200190815260200160002060006101000a81548160ff0219169083151502179055508173ffffffffffffffffffffffffffffffffffffffff168373ffffffffffffffffffffffffffffffffffffffff167f17307eab39ab6107e8899845ad3d59bd9653f200f220920489ca2b5937696c318360405161352d9190613d62565b60405180910390a3505050565b61354584848461307a565b61355184848484613723565b613590576040517f08c379a000000000000000000000000000000000000000000000000000000000815260040161358790615d56565b60405180910390fd5b50505050565b606060405180602001604052806000815250905090565b6060600060016135bc846138aa565b01905060008167ffffffffffffffff8111156135db576135da6145c3565b5b6040519080825280601f01601f19166020018201604052801561360d5781602001600182028036833780820191505090505b509050600082602001820190505b600115613670578080600190039150507f3031323334353637383961626364656600000000000000000000000000000000600a86061a8153600a858161366457613663615d76565b5b0494506000850361361b575b819350505050919050565b60008073ffffffffffffffffffffffffffffffffffffffff1661369d83613391565b73ffffffffffffffffffffffffffffffffffffffff1614159050919050565b50505050565b50505050565b6136d283836139fd565b6136df6000848484613723565b61371e576040517f08c379a000000000000000000000000000000000000000000000000000000000815260040161371590615d56565b60405180910390fd5b505050565b60006137448473ffffffffffffffffffffffffffffffffffffffff16613c1a565b1561389d578373ffffffffffffffffffffffffffffffffffffffff1663150b7a0261376d612ecb565b8786866040518563ffffffff1660e01b815260040161378f9493929190615dfa565b6020604051808303816000875af19250505080156137cb57506040513d601f19601f820116820180604052508101906137c89190615e5b565b60015b61384d573d80600081146137fb576040519150601f19603f3d011682016040523d82523d6000602084013e613800565b606091505b506000815103613845576040517f08c379a000000000000000000000000000000000000000000000000000000000815260040161383c90615d56565b60405180910390fd5b805181602001fd5b63150b7a0260e01b7bffffffffffffffffffffffffffffffffffffffffffffffffffffffff1916817bffffffffffffffffffffffffffffffffffffffffffffffffffffffff1916149150506138a2565b600190505b949350505050565b600080600090507a184f03e93ff9f4daa797ed6e38ed64bf6a1f0100000000000000008310613908577a184f03e93ff9f4daa797ed6e38ed64bf6a1f01000000000000000083816138fe576138fd615d76565b5b0492506040810190505b6d04ee2d6d415b85acef81000000008310613945576d04ee2d6d415b85acef8100000000838161393b5761393a615d76565b5b0492506020810190505b662386f26fc10000831061397457662386f26fc10000838161396a57613969615d76565b5b0492506010810190505b6305f5e100831061399d576305f5e100838161399357613992615d76565b5b0492506008810190505b61271083106139c25761271083816139b8576139b7615d76565b5b0492506004810190505b606483106139e557606483816139db576139da615d76565b5b0492506002810190505b600a83106139f4576001810190505b80915050919050565b600073ffffffffffffffffffffffffffffffffffffffff168273ffffffffffffffffffffffffffffffffffffffff1603613a6c576040517f08c379a0000000000000000000000000000000000000000000000000000000008152600401613a6390615ed4565b60405180910390fd5b613a758161367b565b15613ab5576040517f08c379a0000000000000000000000000000000000000000000000000000000008152600401613aac90615f40565b60405180910390fd5b613ac36000838360016136bc565b613acc8161367b565b15613b0c576040517f08c379a0000000000000000000000000000000000000000000000000000000008152600401613b0390615f40565b60405180910390fd5b6001600360008473ffffffffffffffffffffffffffffffffffffffff1673ffffffffffffffffffffffffffffffffffffffff16815260200190815260200160002060008282540192505081905550816002600083815260200190815260200160002060006101000a81548173ffffffffffffffffffffffffffffffffffffffff021916908373ffffffffffffffffffffffffffffffffffffffff160217905550808273ffffffffffffffffffffffffffffffffffffffff16600073ffffffffffffffffffffffffffffffffffffffff167fddf252ad1be2c89b69c2b068fc378daa952ba7f163c4a11628f55a4df523b3ef60405160405180910390a4613c166000838360016136c2565b5050565b6000808273ffffffffffffffffffffffffffffffffffffffff163b119050919050565b60405180610100016040528060006004811115613c5d57613c5c614108565b5b8152602001600081526020016000815260200160008152602001600015158152602001600015158152602001600073ffffffffffffffffffffffffffffffffffffffff168152602001606081525090565b6000604051905090565b600080fd5b600080fd5b60007fffffffff0000000000000000000000000000000000000000000000000000000082169050919050565b613cf781613cc2565b8114613d0257600080fd5b50565b600081359050613d1481613cee565b92915050565b600060208284031215613d3057613d2f613cb8565b5b6000613d3e84828501613d05565b91505092915050565b60008115159050919050565b613d5c81613d47565b82525050565b6000602082019050613d776000830184613d53565b92915050565b6000819050919050565b613d9081613d7d565b8114613d9b57600080fd5b50565b600081359050613dad81613d87565b92915050565b600060208284031215613dc957613dc8613cb8565b5b6000613dd784828501613d9e565b91505092915050565b600081519050919050565b600082825260208201905092915050565b60005b83811015613e1a578082015181840152602081019050613dff565b60008484015250505050565b6000601f19601f8301169050919050565b6000613e4282613de0565b613e4c8185613deb565b9350613e5c818560208601613dfc565b613e6581613e26565b840191505092915050565b60006020820190508181036000830152613e8a8184613e37565b905092915050565b600073ffffffffffffffffffffffffffffffffffffffff82169050919050565b6000613ebd82613e92565b9050919050565b613ecd81613eb2565b82525050565b6000602082019050613ee86000830184613ec4565b92915050565b613ef781613eb2565b8114613f0257600080fd5b50565b600081359050613f1481613eee565b92915050565b60008060408385031215613f3157613f30613cb8565b5b6000613f3f85828601613f05565b9250506020613f5085828601613d9e565b9150509250929050565b600060208284031215613f7057613f6f613cb8565b5b6000613f7e84828501613f05565b91505092915050565b600080600060608486031215613fa057613f9f613cb8565b5b6000613fae86828701613f05565b9350506020613fbf86828701613f05565b9250506040613fd086828701613d9e565b9150509250925092565b600080fd5b600080fd5b600080fd5b60008083601f840112613fff57613ffe613fda565b5b8235905067ffffffffffffffff81111561401c5761401b613fdf565b5b60208301915083600182028301111561403857614037613fe4565b5b9250929050565b60008060008060008060006080888a03121561405e5761405d613cb8565b5b600088013567ffffffffffffffff81111561407c5761407b613cbd565b5b6140888a828b01613fe9565b9750975050602088013567ffffffffffffffff8111156140ab576140aa613cbd565b5b6140b78a828b01613fe9565b9550955050604088013567ffffffffffffffff8111156140da576140d9613cbd565b5b6140e68a828b01613fe9565b935093505060606140f98a828b01613d9e565b91505092959891949750929550565b7f4e487b7100000000000000000000000000000000000000000000000000000000600052602160045260246000fd5b6005811061414857614147614108565b5b50565b600081905061415982614137565b919050565b60006141698261414b565b9050919050565b6141798161415e565b82525050565b61418881613d7d565b82525050565b61419781613d47565b82525050565b6141a681613eb2565b82525050565b600082825260208201905092915050565b60006141c882613de0565b6141d281856141ac565b93506141e2818560208601613dfc565b6141eb81613e26565b840191505092915050565b60006101008301600083015161420f6000860182614170565b506020830151614222602086018261417f565b506040830151614235604086018261417f565b506060830151614248606086018261417f565b50608083015161425b608086018261418e565b5060a083015161426e60a086018261418e565b5060c083015161428160c086018261419d565b5060e083015184820360e086015261429982826141bd565b9150508091505092915050565b600060208201905081810360008301526142c081846141f6565b905092915050565b6142d18161415e565b82525050565b6142e081613d7d565b82525050565b6000610100820190506142fc600083018b6142c8565b614309602083018a6142d7565b61431660408301896142d7565b61432360608301886142d7565b6143306080830187613d53565b61433d60a0830186613d53565b61434a60c0830185613ec4565b81810360e083015261435c8184613e37565b90509998505050505050505050565b600081519050919050565b600082825260208201905092915050565b6000819050602082019050919050565b6000610140830160008301516143b0600086018261418e565b5060208301516143c3602086018261418e565b5060408301516143d66040860182614170565b5060608301516143e9606086018261417f565b5060808301516143fc608086018261417f565b5060a083015161440f60a086018261417f565b5060c083015161442260c086018261419d565b5060e083015184820360e086015261443a82826141bd565b91505061010083015184820361010086015261445682826141bd565b91505061012083015184820361012086015261447282826141bd565b9150508091505092915050565b600061448b8383614397565b905092915050565b6000602082019050919050565b60006144ab8261436b565b6144b58185614376565b9350836020820285016144c785614387565b8060005b8581101561450357848403895281516144e4858261447f565b94506144ef83614493565b925060208a019950506001810190506144cb565b50829750879550505050505092915050565b6000602082019050818103600083015261452f81846144a0565b905092915050565b600060208201905061454c60008301846142d7565b92915050565b61455b81613d47565b811461456657600080fd5b50565b60008135905061457881614552565b92915050565b6000806040838503121561459557614594613cb8565b5b60006145a385828601613f05565b92505060206145b485828601614569565b9150509250929050565b600080fd5b7f4e487b7100000000000000000000000000000000000000000000000000000000600052604160045260246000fd5b6145fb82613e26565b810181811067ffffffffffffffff8211171561461a576146196145c3565b5b80604052505050565b600061462d613cae565b905061463982826145f2565b919050565b600067ffffffffffffffff821115614659576146586145c3565b5b61466282613e26565b9050602081019050919050565b82818337600083830152505050565b600061469161468c8461463e565b614623565b9050828152602081018484840111156146ad576146ac6145be565b5b6146b884828561466f565b509392505050565b600082601f8301126146d5576146d4613fda565b5b81356146e584826020860161467e565b91505092915050565b6000806000806080858703121561470857614707613cb8565b5b600061471687828801613f05565b945050602061472787828801613f05565b935050604061473887828801613d9e565b925050606085013567ffffffffffffffff81111561475957614758613cbd565b5b614765878288016146c0565b91505092959194509250565b6000806000806000806080878903121561478e5761478d613cb8565b5b600061479c89828a01613d9e565b96505060206147ad89828a01613d9e565b955050604087013567ffffffffffffffff8111156147ce576147cd613cbd565b5b6147da89828a01613fe9565b9450945050606087013567ffffffffffffffff8111156147fd576147fc613cbd565b5b61480989828a01613fe9565b92509250509295509295509295565b60006101408201905061482e600083018d613d53565b61483b602083018c613d53565b614848604083018b6142c8565b614855606083018a6142d7565b61486260808301896142d7565b61486f60a08301886142d7565b61487c60c0830187613ec4565b81810360e083015261488e8186613e37565b90508181036101008301526148a38185613e37565b90508181036101208301526148b88184613e37565b90509b9a5050505050505050505050565b600080604083850312156148e0576148df613cb8565b5b60006148ee85828601613f05565b92505060206148ff85828601613f05565b9150509250929050565b600060808201905061491e60008301876142d7565b61492b60208301866142d7565b818103604083015261493d8185613e37565b905081810360608301526149518184613e37565b905095945050505050565b7f4e487b7100000000000000000000000000000000000000000000000000000000600052603260045260246000fd5b7f4f6e6c79204f776e6572206861732074686520617574686f7269747920746f2060008201527f70726f62652041737365742c2050726f63657373205265766572736564000000602082015250565b60006149e7603d83613deb565b91506149f28261498b565b604082019050919050565b60006020820190508181036000830152614a16816149da565b9050919050565b7f4e487b7100000000000000000000000000000000000000000000000000000000600052602260045260246000fd5b60006002820490506001821680614a6457607f821691505b602082108103614a7757614a76614a1d565b5b50919050565b7f4552433732313a20617070726f76616c20746f2063757272656e74206f776e6560008201527f7200000000000000000000000000000000000000000000000000000000000000602082015250565b6000614ad9602183613deb565b9150614ae482614a7d565b604082019050919050565b60006020820190508181036000830152614b0881614acc565b9050919050565b7f4552433732313a20617070726f76652063616c6c6572206973206e6f7420746f60008201527f6b656e206f776e6572206f7220617070726f76656420666f7220616c6c000000602082015250565b6000614b6b603d83613deb565b9150614b7682614b0f565b604082019050919050565b60006020820190508181036000830152614b9a81614b5e565b9050919050565b7f20417373657420697320756e646572676f696e67204e65676f74696174696f6e600082015250565b6000614bd7602083613deb565b9150614be282614ba1565b602082019050919050565b60006020820190508181036000830152614c0681614bca565b9050919050565b7f596f752063616e6e6f742062757920796f7572204173736574206f7220496e6360008201527f6f7272656374207061796d656e7420616d6f756e742000000000000000000000602082015250565b6000614c69603683613deb565b9150614c7482614c0d565b604082019050919050565b60006020820190508181036000830152614c9881614c5c565b9050919050565b7f796f7520617265206e6f74207665726966696564000000000000000000000000600082015250565b6000614cd5601483613deb565b9150614ce082614c9f565b602082019050919050565b60006020820190508181036000830152614d0481614cc8565b9050919050565b60008190508160005260206000209050919050565b60006020601f8301049050919050565b600082821b905092915050565b600060088302614d6d7fffffffffffffffffffffffffffffffffffffffffffffffffffffffffffffffff82614d30565b614d778683614d30565b95508019841693508086168417925050509392505050565b6000819050919050565b6000614db4614daf614daa84613d7d565b614d8f565b613d7d565b9050919050565b6000819050919050565b614dce83614d99565b614de2614dda82614dbb565b848454614d3d565b825550505050565b600090565b614df7614dea565b614e02818484614dc5565b505050565b5b81811015614e2657614e1b600082614def565b600181019050614e08565b5050565b601f821115614e6b57614e3c81614d0b565b614e4584614d20565b81016020851015614e54578190505b614e68614e6085614d20565b830182614e07565b50505b505050565b600082821c905092915050565b6000614e8e60001984600802614e70565b1980831691505092915050565b6000614ea78383614e7d565b9150826002028217905092915050565b614ec082613de0565b67ffffffffffffffff811115614ed957614ed86145c3565b5b614ee38254614a4c565b614eee828285614e2a565b600060209050601f831160018114614f215760008415614f0f578287015190505b614f198582614e9b565b865550614f81565b601f198416614f2f86614d0b565b60005b82811015614f5757848901518255600182019150602085019450602081019050614f32565b86831015614f745784890151614f70601f891682614e7d565b8355505b6001600288020188555050505b505050505050565b600060a082019050614f9e6000830188613ec4565b614fab6020830187613ec4565b614fb860408301866142d7565b614fc560608301856142d7565b614fd26080830184613d53565b9695505050505050565b7f4552433732313a2063616c6c6572206973206e6f7420746f6b656e206f776e6560008201527f72206f7220617070726f76656400000000000000000000000000000000000000602082015250565b6000615038602d83613deb565b915061504382614fdc565b604082019050919050565b600060208201905081810360008301526150678161502b565b9050919050565b7f596f7520617265206e6f7420746865206275796572206f66207468697320617360008201527f7365740000000000000000000000000000000000000000000000000000000000602082015250565b60006150ca602383613deb565b91506150d58261506e565b604082019050919050565b600060208201905081810360008301526150f9816150bd565b9050919050565b60008154905061510f81614a4c565b9050919050565b8181036151245750506151fc565b61512d82615100565b67ffffffffffffffff811115615146576151456145c3565b5b6151508254614a4c565b61515b828285614e2a565b6000601f83116001811461518a5760008415615178578287015490505b6151828582614e9b565b8655506151f5565b601f19841661519887614d0b565b96506151a386614d0b565b60005b828110156151cb578489015482556001820191506001850194506020810190506151a6565b868310156151e857848901546151e4601f891682614e7d565b8355505b6001600288020188555050505b5050505050505b565b600060408201905061521360008301856142c8565b61522060208301846142c8565b9392505050565b7f596f7520617265206e6f79207665726966696564000000000000000000000000600082015250565b600061525d601483613deb565b915061526882615227565b602082019050919050565b6000602082019050818103600083015261528c81615250565b9050919050565b600081905092915050565b60006152aa8385615293565b93506152b783858461466f565b82840190509392505050565b60006152d082848661529e565b91508190509392505050565b60006152e88385613deb565b93506152f583858461466f565b6152fe83613e26565b840190509392505050565b600060808201905061531e6000830188613ec4565b81810360208301526153318186886152dc565b905061534060408301856142d7565b61534d60608301846142d7565b9695505050505050565b7f4552433732313a20696e76616c696420746f6b656e2049440000000000000000600082015250565b600061538d601883613deb565b915061539882615357565b602082019050919050565b600060208201905081810360008301526153bc81615380565b9050919050565b7f4552433732313a2061646472657373207a65726f206973206e6f74206120766160008201527f6c6964206f776e65720000000000000000000000000000000000000000000000602082015250565b600061541f602983613deb565b915061542a826153c3565b604082019050919050565b6000602082019050818103600083015261544e81615412565b9050919050565b7f6f6e6c7920746865206f776e65722063616e2072656c65617365204173736574600082015250565b600061548b602083613deb565b915061549682615455565b602082019050919050565b600060208201905081810360008301526154ba8161547e565b9050919050565b7f417373657420697320756e646572676f696e67204e65676f74696174696f6e00600082015250565b60006154f7601f83613deb565b9150615502826154c1565b602082019050919050565b60006020820190508181036000830152615526816154ea565b9050919050565b7f4f6e6c79207468652062757965722063616e2063616c6c20746869732066756e60008201527f6374696f6e000000000000000000000000000000000000000000000000000000602082015250565b6000615589602583613deb565b91506155948261552d565b604082019050919050565b600060208201905081810360008301526155b88161557c565b9050919050565b6000815490506155ce81614a4c565b9050919050565b60008190508160005260206000209050919050565b8181036155f85750506156d0565b615601826155bf565b67ffffffffffffffff81111561561a576156196145c3565b5b6156248254614a4c565b61562f828285614e2a565b6000601f83116001811461565e576000841561564c578287015490505b6156568582614e9b565b8655506156c9565b601f19841661566c876155d5565b965061567786614d0b565b60005b8281101561569f5784890154825560018201915060018501945060208101905061567a565b868310156156bc57848901546156b8601f891682614e7d565b8355505b6001600288020188555050505b5050505050505b565b600081546156df81614a4c565b6156e98186613deb565b94506001821660008114615704576001811461571a5761574d565b60ff19831686528115156020028601935061574d565b61572385614d0b565b60005b8381101561574557815481890152600182019150602081019050615726565b808801955050505b50505092915050565b600060a08201905061576b6000830188613ec4565b6157786020830187613ec4565b61578560408301866142d7565b818103606083015261579781856156d2565b90506157a660808301846142d7565b9695505050505050565b7f596f752061726520616c72656164792076657269666965640000000000000000600082015250565b60006157e6601883613deb565b91506157f1826157b0565b602082019050919050565b60006020820190508181036000830152615815816157d9565b9050919050565b600061582782613de0565b6158318185615293565b9350615841818560208601613dfc565b80840191505092915050565b6000615859828561581c565b9150615865828461581c565b91508190509392505050565b7f55736572206e6f7420666f756e64206f722064617461206d69736d6174636800600082015250565b60006158a7601f83613deb565b91506158b282615871565b602082019050919050565b600060208201905081810360008301526158d68161589a565b9050919050565b600081905092915050565b60006158f483856158dd565b935061590183858461466f565b82840190509392505050565b600061591a8284866158e8565b91508190509392505050565b60008190508160005260206000209050919050565b6000815461594881614a4c565b61595281866158dd565b9450600182166000811461596d5760018114615982576159b5565b60ff19831686528115158202860193506159b5565b61598b85615926565b60005b838110156159ad5781548189015260018201915060208101905061598e565b838801955050505b50505092915050565b60006159ca828461593b565b915081905092915050565b7f566572696669636174696f6e206661696c656400000000000000000000000000600082015250565b6000615a0b601383613deb565b9150615a16826159d5565b602082019050919050565b60006020820190508181036000830152615a3a816159fe565b9050919050565b50565b6000615a516000836158dd565b9150615a5c82615a41565b600082019050919050565b6000615a7282615a44565b9150819050919050565b7f4661696c656420746f2073656e64204574686572000000000000000000000000600082015250565b6000615ab2601483613deb565b9150615abd82615a7c565b602082019050919050565b60006020820190508181036000830152615ae181615aa5565b9050919050565b7f5265656e7472616e637947756172643a207265656e7472616e742063616c6c00600082015250565b6000615b1e601f83613deb565b9150615b2982615ae8565b602082019050919050565b60006020820190508181036000830152615b4d81615b11565b9050919050565b7f4552433732313a207472616e736665722066726f6d20696e636f72726563742060008201527f6f776e6572000000000000000000000000000000000000000000000000000000602082015250565b6000615bb0602583613deb565b9150615bbb82615b54565b604082019050919050565b60006020820190508181036000830152615bdf81615ba3565b9050919050565b7f4552433732313a207472616e7366657220746f20746865207a65726f2061646460008201527f7265737300000000000000000000000000000000000000000000000000000000602082015250565b6000615c42602483613deb565b9150615c4d82615be6565b604082019050919050565b60006020820190508181036000830152615c7181615c35565b9050919050565b7f4552433732313a20617070726f766520746f2063616c6c657200000000000000600082015250565b6000615cae601983613deb565b9150615cb982615c78565b602082019050919050565b60006020820190508181036000830152615cdd81615ca1565b9050919050565b7f4552433732313a207472616e7366657220746f206e6f6e20455243373231526560008201527f63656976657220696d706c656d656e7465720000000000000000000000000000602082015250565b6000615d40603283613deb565b9150615d4b82615ce4565b604082019050919050565b60006020820190508181036000830152615d6f81615d33565b9050919050565b7f4e487b7100000000000000000000000000000000000000000000000000000000600052601260045260246000fd5b600081519050919050565b600082825260208201905092915050565b6000615dcc82615da5565b615dd68185615db0565b9350615de6818560208601613dfc565b615def81613e26565b840191505092915050565b6000608082019050615e0f6000830187613ec4565b615e1c6020830186613ec4565b615e2960408301856142d7565b8181036060830152615e3b8184615dc1565b905095945050505050565b600081519050615e5581613cee565b92915050565b600060208284031215615e7157615e70613cb8565b5b6000615e7f84828501615e46565b91505092915050565b7f4552433732313a206d696e7420746f20746865207a65726f2061646472657373600082015250565b6000615ebe602083613deb565b9150615ec982615e88565b602082019050919050565b60006020820190508181036000830152615eed81615eb1565b9050919050565b7f4552433732313a20746f6b656e20616c7265616479206d696e74656400000000600082015250565b6000615f2a601c83613deb565b9150615f3582615ef4565b602082019050919050565b60006020820190508181036000830152615f5981615f1d565b905091905056fea2646970667358221220d29dc53700be75657c3329928ade762fa1dbf1475dbf962b46f44f1af33afd2764736f6c63430008110033",
  "linkReferences": {},
  "deployedLinkReferences": {}
}