{
  "_format": "hh-sol-artifact-1",
  "contractName": "EasyAsset",
  "sourceName": "contracts/EasyAsset.sol",
  "abi": [
    {
      "inputs": [
        {
          "internalType": "string",
          "name": "_name",
          "type": "string"
        },
        {
          "internalType": "string",
          "name": "_symbol",
          "type": "string"
        }
      ],
      "stateMutability": "nonpayable",
      "type": "constructor"
    },
    {
      "anonymous": false,
      "inputs": [
        {
          "indexed": false,
          "internalType": "address",
          "name": "buyer",
          "type": "address"
        },
        {
          "indexed": false,
          "internalType": "address",
          "name": "seller",
          "type": "address"
        },
        {
          "indexed": false,
          "internalType": "uint256",
          "name": "timestamp",
          "type": "uint256"
        },
        {
          "indexed": false,
          "internalType": "uint256",
          "name": "amount",
          "type": "uint256"
        },
        {
          "indexed": false,
          "internalType": "bool",
          "name": "paid",
          "type": "bool"
        }
      ],
      "name": "Action",
      "type": "event"
    },
    {
      "anonymous": false,
      "inputs": [
        {
          "indexed": true,
          "internalType": "address",
          "name": "owner",
          "type": "address"
        },
        {
          "indexed": true,
          "internalType": "address",
          "name": "approved",
          "type": "address"
        },
        {
          "indexed": true,
          "internalType": "uint256",
          "name": "tokenId",
          "type": "uint256"
        }
      ],
      "name": "Approval",
      "type": "event"
    },
    {
      "anonymous": false,
      "inputs": [
        {
          "indexed": true,
          "internalType": "address",
          "name": "owner",
          "type": "address"
        },
        {
          "indexed": true,
          "internalType": "address",
          "name": "operator",
          "type": "address"
        },
        {
          "indexed": false,
          "internalType": "bool",
          "name": "approved",
          "type": "bool"
        }
      ],
      "name": "ApprovalForAll",
      "type": "event"
    },
    {
      "anonymous": false,
      "inputs": [
        {
          "indexed": true,
          "internalType": "address",
          "name": "from",
          "type": "address"
        },
        {
          "indexed": true,
          "internalType": "address",
          "name": "to",
          "type": "address"
        },
        {
          "indexed": true,
          "internalType": "uint256",
          "name": "tokenId",
          "type": "uint256"
        }
      ],
      "name": "Transfer",
      "type": "event"
    },
    {
      "anonymous": false,
      "inputs": [
        {
          "indexed": false,
          "internalType": "address",
          "name": "owner",
          "type": "address"
        },
        {
          "indexed": true,
          "internalType": "uint256",
          "name": "id",
          "type": "uint256"
        },
        {
          "indexed": false,
          "internalType": "string",
          "name": "credential",
          "type": "string"
        },
        {
          "indexed": false,
          "internalType": "uint256",
          "name": "timestamp",
          "type": "uint256"
        },
        {
          "indexed": false,
          "internalType": "uint256",
          "name": "price",
          "type": "uint256"
        }
      ],
      "name": "assetCreation",
      "type": "event"
    },
    {
      "anonymous": false,
      "inputs": [
        {
          "indexed": false,
          "internalType": "address",
          "name": "from",
          "type": "address"
        },
        {
          "indexed": false,
          "internalType": "address",
          "name": "to",
          "type": "address"
        },
        {
          "indexed": false,
          "internalType": "uint256",
          "name": "tokenId",
          "type": "uint256"
        },
        {
          "indexed": false,
          "internalType": "string",
          "name": "credential",
          "type": "string"
        },
        {
          "indexed": false,
          "internalType": "uint256",
          "name": "timestamp",
          "type": "uint256"
        }
      ],
      "name": "assetTransfer",
      "type": "event"
    },
    {
      "anonymous": false,
      "inputs": [
        {
          "indexed": false,
          "internalType": "enum EasyAsset.assetStatus",
          "name": "",
          "type": "uint8"
        },
        {
          "indexed": false,
          "internalType": "enum EasyAsset.assetStatus",
          "name": "",
          "type": "uint8"
        }
      ],
      "name": "refundAction",
      "type": "event"
    },
    {
      "inputs": [
        {
          "internalType": "uint256",
          "name": "id",
          "type": "uint256"
        }
      ],
      "name": "Probe",
      "outputs": [],
      "stateMutability": "nonpayable",
      "type": "function"
    },
    {
      "inputs": [
        {
          "internalType": "address",
          "name": "to",
          "type": "address"
        },
        {
          "internalType": "uint256",
          "name": "tokenId",
          "type": "uint256"
        }
      ],
      "name": "approve",
      "outputs": [],
      "stateMutability": "nonpayable",
      "type": "function"
    },
    {
      "inputs": [
        {
          "internalType": "uint256",
          "name": "",
          "type": "uint256"
        }
      ],
      "name": "assetArray",
      "outputs": [
        {
          "internalType": "bool",
          "name": "probe",
          "type": "bool"
        },
        {
          "internalType": "bool",
          "name": "bought",
          "type": "bool"
        },
        {
          "internalType": "enum EasyAsset.assetStatus",
          "name": "status",
          "type": "uint8"
        },
        {
          "internalType": "uint256",
          "name": "timestamp",
          "type": "uint256"
        },
        {
          "internalType": "uint256",
          "name": "price",
          "type": "uint256"
        },
        {
          "internalType": "uint256",
          "name": "id",
          "type": "uint256"
        },
        {
          "internalType": "address",
          "name": "seller",
          "type": "address"
        },
        {
          "internalType": "string",
          "name": "title",
          "type": "string"
        },
        {
          "internalType": "string",
          "name": "description",
          "type": "string"
        },
        {
          "internalType": "string",
          "name": "credential",
          "type": "string"
        }
      ],
      "stateMutability": "view",
      "type": "function"
    },
    {
      "inputs": [
        {
          "internalType": "address",
          "name": "owner",
          "type": "address"
        }
      ],
      "name": "balanceOf",
      "outputs": [
        {
          "internalType": "uint256",
          "name": "",
          "type": "uint256"
        }
      ],
      "stateMutability": "view",
      "type": "function"
    },
    {
      "inputs": [
        {
          "internalType": "uint256",
          "name": "id",
          "type": "uint256"
        }
      ],
      "name": "buyAsset",
      "outputs": [],
      "stateMutability": "payable",
      "type": "function"
    },
    {
      "inputs": [
        {
          "internalType": "uint256",
          "name": "",
          "type": "uint256"
        }
      ],
      "name": "buyerMap",
      "outputs": [
        {
          "internalType": "enum EasyAsset.assetStatus",
          "name": "status",
          "type": "uint8"
        },
        {
          "internalType": "uint256",
          "name": "id",
          "type": "uint256"
        },
        {
          "internalType": "uint256",
          "name": "amountpaid",
          "type": "uint256"
        },
        {
          "internalType": "uint256",
          "name": "timestamp",
          "type": "uint256"
        },
        {
          "internalType": "bool",
          "name": "paid",
          "type": "bool"
        },
        {
          "internalType": "bool",
          "name": "checked",
          "type": "bool"
        },
        {
          "internalType": "address",
          "name": "owner",
          "type": "address"
        },
        {
          "internalType": "string",
          "name": "credential",
          "type": "string"
        }
      ],
      "stateMutability": "view",
      "type": "function"
    },
    {
      "inputs": [
        {
          "internalType": "uint256",
          "name": "id",
          "type": "uint256"
        }
      ],
      "name": "confirm",
      "outputs": [],
      "stateMutability": "nonpayable",
      "type": "function"
    },
    {
      "inputs": [
        {
          "internalType": "string",
          "name": "title",
          "type": "string"
        },
        {
          "internalType": "string",
          "name": "description",
          "type": "string"
        },
        {
          "internalType": "string",
          "name": "credential",
          "type": "string"
        },
        {
          "internalType": "uint256",
          "name": "price",
          "type": "uint256"
        }
      ],
      "name": "createAsset",
      "outputs": [
        {
          "internalType": "bool",
          "name": "",
          "type": "bool"
        }
      ],
      "stateMutability": "nonpayable",
      "type": "function"
    },
    {
      "inputs": [
        {
          "internalType": "uint256",
          "name": "tokenId",
          "type": "uint256"
        }
      ],
      "name": "getApproved",
      "outputs": [
        {
          "internalType": "address",
          "name": "",
          "type": "address"
        }
      ],
      "stateMutability": "view",
      "type": "function"
    },
    {
      "inputs": [],
      "name": "getAssets",
      "outputs": [
        {
          "components": [
            {
              "internalType": "bool",
              "name": "probe",
              "type": "bool"
            },
            {
              "internalType": "bool",
              "name": "bought",
              "type": "bool"
            },
            {
              "internalType": "enum EasyAsset.assetStatus",
              "name": "status",
              "type": "uint8"
            },
            {
              "internalType": "uint256",
              "name": "timestamp",
              "type": "uint256"
            },
            {
              "internalType": "uint256",
              "name": "price",
              "type": "uint256"
            },
            {
              "internalType": "uint256",
              "name": "id",
              "type": "uint256"
            },
            {
              "internalType": "address",
              "name": "seller",
              "type": "address"
            },
            {
              "internalType": "string",
              "name": "title",
              "type": "string"
            },
            {
              "internalType": "string",
              "name": "description",
              "type": "string"
            },
            {
              "internalType": "string",
              "name": "credential",
              "type": "string"
            }
          ],
          "internalType": "struct EasyAsset.Asset[]",
          "name": "",
          "type": "tuple[]"
        }
      ],
      "stateMutability": "view",
      "type": "function"
    },
    {
      "inputs": [
        {
          "internalType": "uint256",
          "name": "_id",
          "type": "uint256"
        }
      ],
      "name": "getRefundedBuyers",
      "outputs": [
        {
          "components": [
            {
              "internalType": "enum EasyAsset.assetStatus",
              "name": "status",
              "type": "uint8"
            },
            {
              "internalType": "uint256",
              "name": "id",
              "type": "uint256"
            },
            {
              "internalType": "uint256",
              "name": "amountpaid",
              "type": "uint256"
            },
            {
              "internalType": "uint256",
              "name": "timestamp",
              "type": "uint256"
            },
            {
              "internalType": "bool",
              "name": "paid",
              "type": "bool"
            },
            {
              "internalType": "bool",
              "name": "checked",
              "type": "bool"
            },
            {
              "internalType": "address",
              "name": "owner",
              "type": "address"
            },
            {
              "internalType": "string",
              "name": "credential",
              "type": "string"
            }
          ],
          "internalType": "struct EasyAsset.buyer",
          "name": "",
          "type": "tuple"
        }
      ],
      "stateMutability": "view",
      "type": "function"
    },
    {
      "inputs": [
        {
          "internalType": "address",
          "name": "owner",
          "type": "address"
        },
        {
          "internalType": "address",
          "name": "operator",
          "type": "address"
        }
      ],
      "name": "isApprovedForAll",
      "outputs": [
        {
          "internalType": "bool",
          "name": "",
          "type": "bool"
        }
      ],
      "stateMutability": "view",
      "type": "function"
    },
    {
      "inputs": [],
      "name": "name",
      "outputs": [
        {
          "internalType": "string",
          "name": "",
          "type": "string"
        }
      ],
      "stateMutability": "view",
      "type": "function"
    },
    {
      "inputs": [],
      "name": "owner",
      "outputs": [
        {
          "internalType": "address",
          "name": "",
          "type": "address"
        }
      ],
      "stateMutability": "view",
      "type": "function"
    },
    {
      "inputs": [
        {
          "internalType": "uint256",
          "name": "tokenId",
          "type": "uint256"
        }
      ],
      "name": "ownerOf",
      "outputs": [
        {
          "internalType": "address",
          "name": "",
          "type": "address"
        }
      ],
      "stateMutability": "view",
      "type": "function"
    },
    {
      "inputs": [
        {
          "internalType": "uint256",
          "name": "id",
          "type": "uint256"
        }
      ],
      "name": "refund",
      "outputs": [],
      "stateMutability": "nonpayable",
      "type": "function"
    },
    {
      "inputs": [
        {
          "internalType": "uint256",
          "name": "id",
          "type": "uint256"
        }
      ],
      "name": "releaseAsset",
      "outputs": [],
      "stateMutability": "nonpayable",
      "type": "function"
    },
    {
      "inputs": [
        {
          "internalType": "address",
          "name": "from",
          "type": "address"
        },
        {
          "internalType": "address",
          "name": "to",
          "type": "address"
        },
        {
          "internalType": "uint256",
          "name": "tokenId",
          "type": "uint256"
        }
      ],
      "name": "safeTransferFrom",
      "outputs": [],
      "stateMutability": "nonpayable",
      "type": "function"
    },
    {
      "inputs": [
        {
          "internalType": "address",
          "name": "from",
          "type": "address"
        },
        {
          "internalType": "address",
          "name": "to",
          "type": "address"
        },
        {
          "internalType": "uint256",
          "name": "tokenId",
          "type": "uint256"
        },
        {
          "internalType": "bytes",
          "name": "data",
          "type": "bytes"
        }
      ],
      "name": "safeTransferFrom",
      "outputs": [],
      "stateMutability": "nonpayable",
      "type": "function"
    },
    {
      "inputs": [
        {
          "internalType": "address",
          "name": "operator",
          "type": "address"
        },
        {
          "internalType": "bool",
          "name": "approved",
          "type": "bool"
        }
      ],
      "name": "setApprovalForAll",
      "outputs": [],
      "stateMutability": "nonpayable",
      "type": "function"
    },
    {
      "inputs": [
        {
          "internalType": "bytes4",
          "name": "interfaceId",
          "type": "bytes4"
        }
      ],
      "name": "supportsInterface",
      "outputs": [
        {
          "internalType": "bool",
          "name": "",
          "type": "bool"
        }
      ],
      "stateMutability": "view",
      "type": "function"
    },
    {
      "inputs": [],
      "name": "symbol",
      "outputs": [
        {
          "internalType": "string",
          "name": "",
          "type": "string"
        }
      ],
      "stateMutability": "view",
      "type": "function"
    },
    {
      "inputs": [
        {
          "internalType": "uint256",
          "name": "tokenId",
          "type": "uint256"
        }
      ],
      "name": "tokenURI",
      "outputs": [
        {
          "internalType": "string",
          "name": "",
          "type": "string"
        }
      ],
      "stateMutability": "view",
      "type": "function"
    },
    {
      "inputs": [
        {
          "internalType": "address",
          "name": "from",
          "type": "address"
        },
        {
          "internalType": "address",
          "name": "to",
          "type": "address"
        },
        {
          "internalType": "uint256",
          "name": "tokenId",
          "type": "uint256"
        }
      ],
      "name": "transferFrom",
      "outputs": [],
      "stateMutability": "nonpayable",
      "type": "function"
    }
  ],
  "bytecode": "0x60806040523480156200001157600080fd5b5060405162005a4e38038062005a4e833981810160405281019062000037919062000243565b818181600090816200004a919062000513565b5080600190816200005c919062000513565b505050600160068190555033600760006101000a81548173ffffffffffffffffffffffffffffffffffffffff021916908373ffffffffffffffffffffffffffffffffffffffff1602179055505050620005fa565b6000604051905090565b600080fd5b600080fd5b600080fd5b600080fd5b6000601f19601f8301169050919050565b7f4e487b7100000000000000000000000000000000000000000000000000000000600052604160045260246000fd5b6200011982620000ce565b810181811067ffffffffffffffff821117156200013b576200013a620000df565b5b80604052505050565b600062000150620000b0565b90506200015e82826200010e565b919050565b600067ffffffffffffffff821115620001815762000180620000df565b5b6200018c82620000ce565b9050602081019050919050565b60005b83811015620001b95780820151818401526020810190506200019c565b60008484015250505050565b6000620001dc620001d68462000163565b62000144565b905082815260208101848484011115620001fb57620001fa620000c9565b5b6200020884828562000199565b509392505050565b600082601f830112620002285762000227620000c4565b5b81516200023a848260208601620001c5565b91505092915050565b600080604083850312156200025d576200025c620000ba565b5b600083015167ffffffffffffffff8111156200027e576200027d620000bf565b5b6200028c8582860162000210565b925050602083015167ffffffffffffffff811115620002b057620002af620000bf565b5b620002be8582860162000210565b9150509250929050565b600081519050919050565b7f4e487b7100000000000000000000000000000000000000000000000000000000600052602260045260246000fd5b600060028204905060018216806200031b57607f821691505b602082108103620003315762000330620002d3565b5b50919050565b60008190508160005260206000209050919050565b60006020601f8301049050919050565b600082821b905092915050565b6000600883026200039b7fffffffffffffffffffffffffffffffffffffffffffffffffffffffffffffffff826200035c565b620003a786836200035c565b95508019841693508086168417925050509392505050565b6000819050919050565b6000819050919050565b6000620003f4620003ee620003e884620003bf565b620003c9565b620003bf565b9050919050565b6000819050919050565b6200041083620003d3565b620004286200041f82620003fb565b84845462000369565b825550505050565b600090565b6200043f62000430565b6200044c81848462000405565b505050565b5b8181101562000474576200046860008262000435565b60018101905062000452565b5050565b601f821115620004c3576200048d8162000337565b62000498846200034c565b81016020851015620004a8578190505b620004c0620004b7856200034c565b83018262000451565b50505b505050565b600082821c905092915050565b6000620004e860001984600802620004c8565b1980831691505092915050565b6000620005038383620004d5565b9150826002028217905092915050565b6200051e82620002c8565b67ffffffffffffffff8111156200053a5762000539620000df565b5b62000546825462000302565b6200055382828562000478565b600060209050601f8311600181146200058b576000841562000576578287015190505b620005828582620004f5565b865550620005f2565b601f1984166200059b8662000337565b60005b82811015620005c5578489015182556001820191506020850194506020810190506200059e565b86831015620005e55784890151620005e1601f891682620004d5565b8355505b6001600288020188555050505b505050505050565b615444806200060a6000396000f3fe60806040526004361061014b5760003560e01c80636352211e116100b6578063a22cb4651161006f578063a22cb465146104c0578063b88d4fde146104e9578063ba0179b514610512578063c87b56dd1461053b578063e86dad2914610578578063e985e9c5146105be5761014b565b80636352211e1461039c57806367e4ac2c146103d957806370a08231146104045780638da5cb5b146104415780639010ce971461046c57806395d89b41146104955761014b565b806323b872dd1161010857806323b872dd14610263578063278ecde11461028c578063369d8138146102b557806342842e0e146102f25780634dcfd9451461031b5780635f719633146103585761014b565b806301ffc9a71461015057806304e98cef1461018d57806306fdde03146101b6578063081812fc146101e1578063095ea7b31461021e578063110d35b814610247575b600080fd5b34801561015c57600080fd5b506101776004803603810190610172919061355f565b6105fb565b60405161018491906135a7565b60405180910390f35b34801561019957600080fd5b506101b460048036038101906101af91906135f8565b6106dd565b005b3480156101c257600080fd5b506101cb61089f565b6040516101d891906136b5565b60405180910390f35b3480156101ed57600080fd5b50610208600480360381019061020391906135f8565b610931565b6040516102159190613718565b60405180910390f35b34801561022a57600080fd5b506102456004803603810190610240919061375f565b610977565b005b610261600480360381019061025c91906135f8565b610a8e565b005b34801561026f57600080fd5b5061028a6004803603810190610285919061379f565b610e0f565b005b34801561029857600080fd5b506102b360048036038101906102ae91906135f8565b610e6f565b005b3480156102c157600080fd5b506102dc60048036038101906102d79190613857565b6111d0565b6040516102e991906135a7565b60405180910390f35b3480156102fe57600080fd5b506103196004803603810190610314919061379f565b611590565b005b34801561032757600080fd5b50610342600480360381019061033d91906135f8565b6115b0565b60405161034f9190613abe565b60405180910390f35b34801561036457600080fd5b5061037f600480360381019061037a91906135f8565b611755565b604051610393989796959493929190613afe565b60405180910390f35b3480156103a857600080fd5b506103c360048036038101906103be91906135f8565b61186c565b6040516103d09190613718565b60405180910390f35b3480156103e557600080fd5b506103ee6118f2565b6040516103fb9190613d2d565b60405180910390f35b34801561041057600080fd5b5061042b60048036038101906104269190613d4f565b611bed565b6040516104389190613d7c565b60405180910390f35b34801561044d57600080fd5b50610456611ca4565b6040516104639190613718565b60405180910390f35b34801561047857600080fd5b50610493600480360381019061048e91906135f8565b611cca565b005b3480156104a157600080fd5b506104aa611e0f565b6040516104b791906136b5565b60405180910390f35b3480156104cc57600080fd5b506104e760048036038101906104e29190613dc3565b611ea1565b005b3480156104f557600080fd5b50610510600480360381019061050b9190613f33565b611eb7565b005b34801561051e57600080fd5b50610539600480360381019061053491906135f8565b611f19565b005b34801561054757600080fd5b50610562600480360381019061055d91906135f8565b61226b565b60405161056f91906136b5565b60405180910390f35b34801561058457600080fd5b5061059f600480360381019061059a91906135f8565b6122d3565b6040516105b59a99989796959493929190613fb6565b60405180910390f35b3480156105ca57600080fd5b506105e560048036038101906105e09190614067565b612516565b6040516105f291906135a7565b60405180910390f35b60007f80ac58cd000000000000000000000000000000000000000000000000000000007bffffffffffffffffffffffffffffffffffffffffffffffffffffffff1916827bffffffffffffffffffffffffffffffffffffffffffffffffffffffff191614806106c657507f5b5e139f000000000000000000000000000000000000000000000000000000007bffffffffffffffffffffffffffffffffffffffffffffffffffffffff1916827bffffffffffffffffffffffffffffffffffffffffffffffffffffffff1916145b806106d657506106d5826125aa565b5b9050919050565b600760009054906101000a900473ffffffffffffffffffffffffffffffffffffffff1673ffffffffffffffffffffffffffffffffffffffff163373ffffffffffffffffffffffffffffffffffffffff1614801561076a5750600c8181548110610749576107486140a7565b5b906000526020600020906008020160000160009054906101000a900460ff16155b6107a9576040517f08c379a00000000000000000000000000000000000000000000000000000000081526004016107a090614148565b60405180910390fd5b6000600c82815481106107bf576107be6140a7565b5b9060005260206000209060080201905060018160000160006101000a81548160ff02191690831515021790555060016004811115610800576107ff613920565b5b8160000160029054906101000a900460ff16600481111561082457610823613920565b5b0361086e5761086d600b600084815260200190815260200160002060040160029054906101000a900473ffffffffffffffffffffffffffffffffffffffff168260020154612614565b5b60028160000160026101000a81548160ff0219169083600481111561089657610895613920565b5b02179055505050565b6060600080546108ae90614197565b80601f01602080910402602001604051908101604052809291908181526020018280546108da90614197565b80156109275780601f106108fc57610100808354040283529160200191610927565b820191906000526020600020905b81548152906001019060200180831161090a57829003601f168201915b5050505050905090565b600061093c826126c5565b6004600083815260200190815260200160002060009054906101000a900473ffffffffffffffffffffffffffffffffffffffff169050919050565b60006109828261186c565b90508073ffffffffffffffffffffffffffffffffffffffff168373ffffffffffffffffffffffffffffffffffffffff16036109f2576040517f08c379a00000000000000000000000000000000000000000000000000000000081526004016109e99061423a565b60405180910390fd5b8073ffffffffffffffffffffffffffffffffffffffff16610a11612710565b73ffffffffffffffffffffffffffffffffffffffff161480610a405750610a3f81610a3a612710565b612516565b5b610a7f576040517f08c379a0000000000000000000000000000000000000000000000000000000008152600401610a76906142cc565b60405180910390fd5b610a898383612718565b505050565b610a966127d1565b6000600c8281548110610aac57610aab6140a7565b5b9060005260206000209060080201905060006004811115610ad057610acf613920565b5b8160000160029054906101000a900460ff166004811115610af457610af3613920565b5b14610b34576040517f08c379a0000000000000000000000000000000000000000000000000000000008152600401610b2b90614338565b60405180910390fd5b8060040160009054906101000a900473ffffffffffffffffffffffffffffffffffffffff1673ffffffffffffffffffffffffffffffffffffffff163373ffffffffffffffffffffffffffffffffffffffff1614158015610b975750806002015434145b610bd6576040517f08c379a0000000000000000000000000000000000000000000000000000000008152600401610bcd906143ca565b60405180910390fd5b600060405180610100016040528060016004811115610bf857610bf7613920565b5b81526020018481526020013481526020014281526020016001151581526020016000151581526020013373ffffffffffffffffffffffffffffffffffffffff16815260200160405180602001604052806000815250815250905080600b600085815260200190815260200160002060008201518160000160006101000a81548160ff02191690836004811115610c9157610c90613920565b5b021790555060208201518160010155604082015181600201556060820151816003015560808201518160040160006101000a81548160ff02191690831515021790555060a08201518160040160016101000a81548160ff02191690831515021790555060c08201518160040160026101000a81548173ffffffffffffffffffffffffffffffffffffffff021916908373ffffffffffffffffffffffffffffffffffffffff16021790555060e0820151816005019081610d509190614596565b5090505060018260000160016101000a81548160ff02191690831515021790555060018260000160026101000a81548160ff02191690836004811115610d9957610d98613920565b5b02179055507f2018a69277a3b64014d178d92da02c971e68f2f7d89f996327e9757f49c433ba338360040160009054906101000a900473ffffffffffffffffffffffffffffffffffffffff1642346001604051610dfa959493929190614668565b60405180910390a15050610e0c612820565b50565b610e20610e1a612710565b8261282a565b610e5f576040517f08c379a0000000000000000000000000000000000000000000000000000000008152600401610e569061472d565b60405180910390fd5b610e6a8383836128bf565b505050565b6000600b600083815260200190815260200160002090506000600c8381548110610e9c57610e9b6140a7565b5b906000526020600020906008020190508160040160029054906101000a900473ffffffffffffffffffffffffffffffffffffffff1673ffffffffffffffffffffffffffffffffffffffff163373ffffffffffffffffffffffffffffffffffffffff16148015610f40575060016004811115610f1a57610f19613920565b5b8260000160009054906101000a900460ff166004811115610f3e57610f3d613920565b5b145b610f7f576040517f08c379a0000000000000000000000000000000000000000000000000000000008152600401610f76906147bf565b60405180910390fd5b60038260000160006101000a81548160ff02191690836004811115610fa757610fa6613920565b5b021790555081600a60008581526020019081526020016000206000820160009054906101000a900460ff168160000160006101000a81548160ff02191690836004811115610ff857610ff7613920565b5b02179055506001820154816001015560028201548160020155600382015481600301556004820160009054906101000a900460ff168160040160006101000a81548160ff0219169083151502179055506004820160019054906101000a900460ff168160040160016101000a81548160ff0219169083151502179055506004820160029054906101000a900473ffffffffffffffffffffffffffffffffffffffff168160040160026101000a81548173ffffffffffffffffffffffffffffffffffffffff021916908373ffffffffffffffffffffffffffffffffffffffff160217905550600582018160050190816110f091906147f5565b509050506111268260040160029054906101000a900473ffffffffffffffffffffffffffffffffffffffff168260020154612614565b60008160000160016101000a81548160ff02191690831515021790555060008160000160026101000a81548160ff0219169083600481111561116b5761116a613920565b5b02179055507f84d7f04dfb80e682ae7d14070ec2154d4184eae42887cb5fe7747d6ccbadc21c8160000160029054906101000a900460ff168360000160009054906101000a900460ff166040516111c39291906148dd565b60405180910390a1505050565b6000600984846040516111e4929190614936565b908152602001604051809103902060009054906101000a900460ff1615611240576040517f08c379a00000000000000000000000000000000000000000000000000000000081526004016112379061499b565b60405180910390fd5b6000600c805490509050600c6040518061014001604052806000151581526020016000151581526020016000600481111561127e5761127d613920565b5b81526020014281526020018581526020018381526020013373ffffffffffffffffffffffffffffffffffffffff1681526020018b8b8080601f016020809104026020016040519081016040528093929190818152602001838380828437600081840152601f19601f82011690508083019250505050505050815260200189898080601f016020809104026020016040519081016040528093929190818152602001838380828437600081840152601f19601f82011690508083019250505050505050815260200187878080601f016020809104026020016040519081016040528093929190818152602001838380828437600081840152601f19601f82011690508083019250505050505050815250908060018154018082558091505060019003906000526020600020906008020160009091909190915060008201518160000160006101000a81548160ff02191690831515021790555060208201518160000160016101000a81548160ff02191690831515021790555060408201518160000160026101000a81548160ff0219169083600481111561142157611420613920565b5b0217905550606082015181600101556080820151816002015560a0820151816003015560c08201518160040160006101000a81548173ffffffffffffffffffffffffffffffffffffffff021916908373ffffffffffffffffffffffffffffffffffffffff16021790555060e08201518160050190816114a09190614596565b506101008201518160060190816114b79190614596565b506101208201518160070190816114ce9190614596565b5050506001600986866040516114e5929190614936565b908152602001604051809103902060006101000a81548160ff02191690831515021790555060016008600083815260200190815260200160002060006101000a81548160ff021916908315150217905550807f1bd34f5070969faf7c075ecf37c24f973b7c3a11714bbb362e90c5284f96cf5b338787428860405161156e9594939291906149e8565b60405180910390a26115803382612bb8565b6001915050979650505050505050565b6115ab83838360405180602001604052806000815250611eb7565b505050565b6115b8613482565b600a6000838152602001908152602001600020604051806101000160405290816000820160009054906101000a900460ff1660048111156115fc576115fb613920565b5b600481111561160e5761160d613920565b5b81526020016001820154815260200160028201548152602001600382015481526020016004820160009054906101000a900460ff161515151581526020016004820160019054906101000a900460ff161515151581526020016004820160029054906101000a900473ffffffffffffffffffffffffffffffffffffffff1673ffffffffffffffffffffffffffffffffffffffff1673ffffffffffffffffffffffffffffffffffffffff1681526020016005820180546116cc90614197565b80601f01602080910402602001604051908101604052809291908181526020018280546116f890614197565b80156117455780601f1061171a57610100808354040283529160200191611745565b820191906000526020600020905b81548152906001019060200180831161172857829003601f168201915b5050505050815250509050919050565b600b6020528060005260406000206000915090508060000160009054906101000a900460ff16908060010154908060020154908060030154908060040160009054906101000a900460ff16908060040160019054906101000a900460ff16908060040160029054906101000a900473ffffffffffffffffffffffffffffffffffffffff16908060050180546117e990614197565b80601f016020809104026020016040519081016040528092919081815260200182805461181590614197565b80156118625780601f1061183757610100808354040283529160200191611862565b820191906000526020600020905b81548152906001019060200180831161184557829003601f168201915b5050505050905088565b60008061187883612bd6565b9050600073ffffffffffffffffffffffffffffffffffffffff168173ffffffffffffffffffffffffffffffffffffffff16036118e9576040517f08c379a00000000000000000000000000000000000000000000000000000000081526004016118e090614a82565b60405180910390fd5b80915050919050565b6060600c805480602002602001604051908101604052809291908181526020016000905b82821015611be45783829060005260206000209060080201604051806101400160405290816000820160009054906101000a900460ff161515151581526020016000820160019054906101000a900460ff161515151581526020016000820160029054906101000a900460ff16600481111561199557611994613920565b5b60048111156119a7576119a6613920565b5b81526020016001820154815260200160028201548152602001600382015481526020016004820160009054906101000a900473ffffffffffffffffffffffffffffffffffffffff1673ffffffffffffffffffffffffffffffffffffffff1673ffffffffffffffffffffffffffffffffffffffff168152602001600582018054611a2f90614197565b80601f0160208091040260200160405190810160405280929190818152602001828054611a5b90614197565b8015611aa85780601f10611a7d57610100808354040283529160200191611aa8565b820191906000526020600020905b815481529060010190602001808311611a8b57829003601f168201915b50505050508152602001600682018054611ac190614197565b80601f0160208091040260200160405190810160405280929190818152602001828054611aed90614197565b8015611b3a5780601f10611b0f57610100808354040283529160200191611b3a565b820191906000526020600020905b815481529060010190602001808311611b1d57829003601f168201915b50505050508152602001600782018054611b5390614197565b80601f0160208091040260200160405190810160405280929190818152602001828054611b7f90614197565b8015611bcc5780601f10611ba157610100808354040283529160200191611bcc565b820191906000526020600020905b815481529060010190602001808311611baf57829003601f168201915b50505050508152505081526020019060010190611916565b50505050905090565b60008073ffffffffffffffffffffffffffffffffffffffff168273ffffffffffffffffffffffffffffffffffffffff1603611c5d576040517f08c379a0000000000000000000000000000000000000000000000000000000008152600401611c5490614b14565b60405180910390fd5b600360008373ffffffffffffffffffffffffffffffffffffffff1673ffffffffffffffffffffffffffffffffffffffff168152602001908152602001600020549050919050565b600760009054906101000a900473ffffffffffffffffffffffffffffffffffffffff1681565b6000600c8281548110611ce057611cdf6140a7565b5b90600052602060002090600802019050600760009054906101000a900473ffffffffffffffffffffffffffffffffffffffff1673ffffffffffffffffffffffffffffffffffffffff163373ffffffffffffffffffffffffffffffffffffffff16148015611d82575060026004811115611d5c57611d5b613920565b5b8160000160029054906101000a900460ff166004811115611d8057611d7f613920565b5b145b611dc1576040517f08c379a0000000000000000000000000000000000000000000000000000000008152600401611db890614b80565b60405180910390fd5b60008160000160006101000a81548160ff02191690831515021790555060008160000160026101000a81548160ff02191690836004811115611e0657611e05613920565b5b02179055505050565b606060018054611e1e90614197565b80601f0160208091040260200160405190810160405280929190818152602001828054611e4a90614197565b8015611e975780601f10611e6c57610100808354040283529160200191611e97565b820191906000526020600020905b815481529060010190602001808311611e7a57829003601f168201915b5050505050905090565b611eb3611eac612710565b8383612c13565b5050565b611ec8611ec2612710565b8361282a565b611f07576040517f08c379a0000000000000000000000000000000000000000000000000000000008152600401611efe9061472d565b60405180910390fd5b611f1384848484612d7f565b50505050565b6000600c8281548110611f2f57611f2e6140a7565b5b906000526020600020906008020190506000600b6000848152602001908152602001600020905060016004811115611f6a57611f69613920565b5b8260000160029054906101000a900460ff166004811115611f8e57611f8d613920565b5b148015611fb857506008600084815260200190815260200160002060009054906101000a900460ff165b611ff7576040517f08c379a0000000000000000000000000000000000000000000000000000000008152600401611fee90614bec565b60405180910390fd5b8060040160029054906101000a900473ffffffffffffffffffffffffffffffffffffffff1673ffffffffffffffffffffffffffffffffffffffff163373ffffffffffffffffffffffffffffffffffffffff1614801561206557508060040160019054906101000a900460ff16155b6120a4576040517f08c379a000000000000000000000000000000000000000000000000000000000815260040161209b90614c7e565b60405180910390fd5b60018160040160016101000a81548160ff0219169083151502179055506120f38260040160009054906101000a900473ffffffffffffffffffffffffffffffffffffffff168360020154612614565b60048260000160026101000a81548160ff0219169083600481111561211b5761211a613920565b5b02179055506121538260040160009054906101000a900473ffffffffffffffffffffffffffffffffffffffff163384600301546128bf565b816007018160050190816121679190614cc9565b50338260040160006101000a81548173ffffffffffffffffffffffffffffffffffffffff021916908373ffffffffffffffffffffffffffffffffffffffff1602179055507f8eac340af35af673875d62f0b4eeaa6928b83ecb2f0f45ef9b6d1cba38b006618260040160009054906101000a900473ffffffffffffffffffffffffffffffffffffffff168260040160029054906101000a900473ffffffffffffffffffffffffffffffffffffffff1684600301548460050142604051612231959493929190614e35565b60405180910390a160048160000160006101000a81548160ff0219169083600481111561226157612260613920565b5b0217905550505050565b6060612276826126c5565b6000612280612ddb565b905060008151116122a057604051806020016040528060008152506122cb565b806122aa84612df2565b6040516020016122bb929190614ec0565b6040516020818303038152906040525b915050919050565b600c81815481106122e357600080fd5b90600052602060002090600802016000915090508060000160009054906101000a900460ff16908060000160019054906101000a900460ff16908060000160029054906101000a900460ff16908060010154908060020154908060030154908060040160009054906101000a900473ffffffffffffffffffffffffffffffffffffffff169080600501805461237790614197565b80601f01602080910402602001604051908101604052809291908181526020018280546123a390614197565b80156123f05780601f106123c5576101008083540402835291602001916123f0565b820191906000526020600020905b8154815290600101906020018083116123d357829003601f168201915b50505050509080600601805461240590614197565b80601f016020809104026020016040519081016040528092919081815260200182805461243190614197565b801561247e5780601f106124535761010080835404028352916020019161247e565b820191906000526020600020905b81548152906001019060200180831161246157829003601f168201915b50505050509080600701805461249390614197565b80601f01602080910402602001604051908101604052809291908181526020018280546124bf90614197565b801561250c5780601f106124e15761010080835404028352916020019161250c565b820191906000526020600020905b8154815290600101906020018083116124ef57829003601f168201915b505050505090508a565b6000600560008473ffffffffffffffffffffffffffffffffffffffff1673ffffffffffffffffffffffffffffffffffffffff16815260200190815260200160002060008373ffffffffffffffffffffffffffffffffffffffff1673ffffffffffffffffffffffffffffffffffffffff16815260200190815260200160002060009054906101000a900460ff16905092915050565b60007f01ffc9a7000000000000000000000000000000000000000000000000000000007bffffffffffffffffffffffffffffffffffffffffffffffffffffffff1916827bffffffffffffffffffffffffffffffffffffffffffffffffffffffff1916149050919050565b60008273ffffffffffffffffffffffffffffffffffffffff168260405161263a90614f15565b60006040518083038185875af1925050503d8060008114612677576040519150601f19603f3d011682016040523d82523d6000602084013e61267c565b606091505b50509050806126c0576040517f08c379a00000000000000000000000000000000000000000000000000000000081526004016126b790614f76565b60405180910390fd5b505050565b6126ce81612ec0565b61270d576040517f08c379a000000000000000000000000000000000000000000000000000000000815260040161270490614a82565b60405180910390fd5b50565b600033905090565b816004600083815260200190815260200160002060006101000a81548173ffffffffffffffffffffffffffffffffffffffff021916908373ffffffffffffffffffffffffffffffffffffffff160217905550808273ffffffffffffffffffffffffffffffffffffffff1661278b8361186c565b73ffffffffffffffffffffffffffffffffffffffff167f8c5be1e5ebec7d5bd14f71427d1e84f3dd0314c0f7b2291e5b200ac8c7c3b92560405160405180910390a45050565b600260065403612816576040517f08c379a000000000000000000000000000000000000000000000000000000000815260040161280d90614fe2565b60405180910390fd5b6002600681905550565b6001600681905550565b6000806128368361186c565b90508073ffffffffffffffffffffffffffffffffffffffff168473ffffffffffffffffffffffffffffffffffffffff16148061287857506128778185612516565b5b806128b657508373ffffffffffffffffffffffffffffffffffffffff1661289e84610931565b73ffffffffffffffffffffffffffffffffffffffff16145b91505092915050565b8273ffffffffffffffffffffffffffffffffffffffff166128df8261186c565b73ffffffffffffffffffffffffffffffffffffffff1614612935576040517f08c379a000000000000000000000000000000000000000000000000000000000815260040161292c90615074565b60405180910390fd5b600073ffffffffffffffffffffffffffffffffffffffff168273ffffffffffffffffffffffffffffffffffffffff16036129a4576040517f08c379a000000000000000000000000000000000000000000000000000000000815260040161299b90615106565b60405180910390fd5b6129b18383836001612f01565b8273ffffffffffffffffffffffffffffffffffffffff166129d18261186c565b73ffffffffffffffffffffffffffffffffffffffff1614612a27576040517f08c379a0000000000000000000000000000000000000000000000000000000008152600401612a1e90615074565b60405180910390fd5b6004600082815260200190815260200160002060006101000a81549073ffffffffffffffffffffffffffffffffffffffff02191690556001600360008573ffffffffffffffffffffffffffffffffffffffff1673ffffffffffffffffffffffffffffffffffffffff168152602001908152602001600020600082825403925050819055506001600360008473ffffffffffffffffffffffffffffffffffffffff1673ffffffffffffffffffffffffffffffffffffffff16815260200190815260200160002060008282540192505081905550816002600083815260200190815260200160002060006101000a81548173ffffffffffffffffffffffffffffffffffffffff021916908373ffffffffffffffffffffffffffffffffffffffff160217905550808273ffffffffffffffffffffffffffffffffffffffff168473ffffffffffffffffffffffffffffffffffffffff167fddf252ad1be2c89b69c2b068fc378daa952ba7f163c4a11628f55a4df523b3ef60405160405180910390a4612bb38383836001612f07565b505050565b612bd2828260405180602001604052806000815250612f0d565b5050565b60006002600083815260200190815260200160002060009054906101000a900473ffffffffffffffffffffffffffffffffffffffff169050919050565b8173ffffffffffffffffffffffffffffffffffffffff168373ffffffffffffffffffffffffffffffffffffffff1603612c81576040517f08c379a0000000000000000000000000000000000000000000000000000000008152600401612c7890615172565b60405180910390fd5b80600560008573ffffffffffffffffffffffffffffffffffffffff1673ffffffffffffffffffffffffffffffffffffffff16815260200190815260200160002060008473ffffffffffffffffffffffffffffffffffffffff1673ffffffffffffffffffffffffffffffffffffffff16815260200190815260200160002060006101000a81548160ff0219169083151502179055508173ffffffffffffffffffffffffffffffffffffffff168373ffffffffffffffffffffffffffffffffffffffff167f17307eab39ab6107e8899845ad3d59bd9653f200f220920489ca2b5937696c3183604051612d7291906135a7565b60405180910390a3505050565b612d8a8484846128bf565b612d9684848484612f68565b612dd5576040517f08c379a0000000000000000000000000000000000000000000000000000000008152600401612dcc90615204565b60405180910390fd5b50505050565b606060405180602001604052806000815250905090565b606060006001612e01846130ef565b01905060008167ffffffffffffffff811115612e2057612e1f613e08565b5b6040519080825280601f01601f191660200182016040528015612e525781602001600182028036833780820191505090505b509050600082602001820190505b600115612eb5578080600190039150507f3031323334353637383961626364656600000000000000000000000000000000600a86061a8153600a8581612ea957612ea8615224565b5b04945060008503612e60575b819350505050919050565b60008073ffffffffffffffffffffffffffffffffffffffff16612ee283612bd6565b73ffffffffffffffffffffffffffffffffffffffff1614159050919050565b50505050565b50505050565b612f178383613242565b612f246000848484612f68565b612f63576040517f08c379a0000000000000000000000000000000000000000000000000000000008152600401612f5a90615204565b60405180910390fd5b505050565b6000612f898473ffffffffffffffffffffffffffffffffffffffff1661345f565b156130e2578373ffffffffffffffffffffffffffffffffffffffff1663150b7a02612fb2612710565b8786866040518563ffffffff1660e01b8152600401612fd494939291906152a8565b6020604051808303816000875af192505050801561301057506040513d601f19601f8201168201806040525081019061300d9190615309565b60015b613092573d8060008114613040576040519150601f19603f3d011682016040523d82523d6000602084013e613045565b606091505b50600081510361308a576040517f08c379a000000000000000000000000000000000000000000000000000000000815260040161308190615204565b60405180910390fd5b805181602001fd5b63150b7a0260e01b7bffffffffffffffffffffffffffffffffffffffffffffffffffffffff1916817bffffffffffffffffffffffffffffffffffffffffffffffffffffffff1916149150506130e7565b600190505b949350505050565b600080600090507a184f03e93ff9f4daa797ed6e38ed64bf6a1f010000000000000000831061314d577a184f03e93ff9f4daa797ed6e38ed64bf6a1f010000000000000000838161314357613142615224565b5b0492506040810190505b6d04ee2d6d415b85acef8100000000831061318a576d04ee2d6d415b85acef810000000083816131805761317f615224565b5b0492506020810190505b662386f26fc1000083106131b957662386f26fc1000083816131af576131ae615224565b5b0492506010810190505b6305f5e10083106131e2576305f5e10083816131d8576131d7615224565b5b0492506008810190505b61271083106132075761271083816131fd576131fc615224565b5b0492506004810190505b6064831061322a57606483816132205761321f615224565b5b0492506002810190505b600a8310613239576001810190505b80915050919050565b600073ffffffffffffffffffffffffffffffffffffffff168273ffffffffffffffffffffffffffffffffffffffff16036132b1576040517f08c379a00000000000000000000000000000000000000000000000000000000081526004016132a890615382565b60405180910390fd5b6132ba81612ec0565b156132fa576040517f08c379a00000000000000000000000000000000000000000000000000000000081526004016132f1906153ee565b60405180910390fd5b613308600083836001612f01565b61331181612ec0565b15613351576040517f08c379a0000000000000000000000000000000000000000000000000000000008152600401613348906153ee565b60405180910390fd5b6001600360008473ffffffffffffffffffffffffffffffffffffffff1673ffffffffffffffffffffffffffffffffffffffff16815260200190815260200160002060008282540192505081905550816002600083815260200190815260200160002060006101000a81548173ffffffffffffffffffffffffffffffffffffffff021916908373ffffffffffffffffffffffffffffffffffffffff160217905550808273ffffffffffffffffffffffffffffffffffffffff16600073ffffffffffffffffffffffffffffffffffffffff167fddf252ad1be2c89b69c2b068fc378daa952ba7f163c4a11628f55a4df523b3ef60405160405180910390a461345b600083836001612f07565b5050565b6000808273ffffffffffffffffffffffffffffffffffffffff163b119050919050565b604051806101000160405280600060048111156134a2576134a1613920565b5b8152602001600081526020016000815260200160008152602001600015158152602001600015158152602001600073ffffffffffffffffffffffffffffffffffffffff168152602001606081525090565b6000604051905090565b600080fd5b600080fd5b60007fffffffff0000000000000000000000000000000000000000000000000000000082169050919050565b61353c81613507565b811461354757600080fd5b50565b60008135905061355981613533565b92915050565b600060208284031215613575576135746134fd565b5b60006135838482850161354a565b91505092915050565b60008115159050919050565b6135a18161358c565b82525050565b60006020820190506135bc6000830184613598565b92915050565b6000819050919050565b6135d5816135c2565b81146135e057600080fd5b50565b6000813590506135f2816135cc565b92915050565b60006020828403121561360e5761360d6134fd565b5b600061361c848285016135e3565b91505092915050565b600081519050919050565b600082825260208201905092915050565b60005b8381101561365f578082015181840152602081019050613644565b60008484015250505050565b6000601f19601f8301169050919050565b600061368782613625565b6136918185613630565b93506136a1818560208601613641565b6136aa8161366b565b840191505092915050565b600060208201905081810360008301526136cf818461367c565b905092915050565b600073ffffffffffffffffffffffffffffffffffffffff82169050919050565b6000613702826136d7565b9050919050565b613712816136f7565b82525050565b600060208201905061372d6000830184613709565b92915050565b61373c816136f7565b811461374757600080fd5b50565b60008135905061375981613733565b92915050565b60008060408385031215613776576137756134fd565b5b60006137848582860161374a565b9250506020613795858286016135e3565b9150509250929050565b6000806000606084860312156137b8576137b76134fd565b5b60006137c68682870161374a565b93505060206137d78682870161374a565b92505060406137e8868287016135e3565b9150509250925092565b600080fd5b600080fd5b600080fd5b60008083601f840112613817576138166137f2565b5b8235905067ffffffffffffffff811115613834576138336137f7565b5b6020830191508360018202830111156138505761384f6137fc565b5b9250929050565b60008060008060008060006080888a031215613876576138756134fd565b5b600088013567ffffffffffffffff81111561389457613893613502565b5b6138a08a828b01613801565b9750975050602088013567ffffffffffffffff8111156138c3576138c2613502565b5b6138cf8a828b01613801565b9550955050604088013567ffffffffffffffff8111156138f2576138f1613502565b5b6138fe8a828b01613801565b935093505060606139118a828b016135e3565b91505092959891949750929550565b7f4e487b7100000000000000000000000000000000000000000000000000000000600052602160045260246000fd5b600581106139605761395f613920565b5b50565b60008190506139718261394f565b919050565b600061398182613963565b9050919050565b61399181613976565b82525050565b6139a0816135c2565b82525050565b6139af8161358c565b82525050565b6139be816136f7565b82525050565b600082825260208201905092915050565b60006139e082613625565b6139ea81856139c4565b93506139fa818560208601613641565b613a038161366b565b840191505092915050565b600061010083016000830151613a276000860182613988565b506020830151613a3a6020860182613997565b506040830151613a4d6040860182613997565b506060830151613a606060860182613997565b506080830151613a7360808601826139a6565b5060a0830151613a8660a08601826139a6565b5060c0830151613a9960c08601826139b5565b5060e083015184820360e0860152613ab182826139d5565b9150508091505092915050565b60006020820190508181036000830152613ad88184613a0e565b905092915050565b613ae981613976565b82525050565b613af8816135c2565b82525050565b600061010082019050613b14600083018b613ae0565b613b21602083018a613aef565b613b2e6040830189613aef565b613b3b6060830188613aef565b613b486080830187613598565b613b5560a0830186613598565b613b6260c0830185613709565b81810360e0830152613b74818461367c565b90509998505050505050505050565b600081519050919050565b600082825260208201905092915050565b6000819050602082019050919050565b600061014083016000830151613bc860008601826139a6565b506020830151613bdb60208601826139a6565b506040830151613bee6040860182613988565b506060830151613c016060860182613997565b506080830151613c146080860182613997565b5060a0830151613c2760a0860182613997565b5060c0830151613c3a60c08601826139b5565b5060e083015184820360e0860152613c5282826139d5565b915050610100830151848203610100860152613c6e82826139d5565b915050610120830151848203610120860152613c8a82826139d5565b9150508091505092915050565b6000613ca38383613baf565b905092915050565b6000602082019050919050565b6000613cc382613b83565b613ccd8185613b8e565b935083602082028501613cdf85613b9f565b8060005b85811015613d1b5784840389528151613cfc8582613c97565b9450613d0783613cab565b925060208a01995050600181019050613ce3565b50829750879550505050505092915050565b60006020820190508181036000830152613d478184613cb8565b905092915050565b600060208284031215613d6557613d646134fd565b5b6000613d738482850161374a565b91505092915050565b6000602082019050613d916000830184613aef565b92915050565b613da08161358c565b8114613dab57600080fd5b50565b600081359050613dbd81613d97565b92915050565b60008060408385031215613dda57613dd96134fd565b5b6000613de88582860161374a565b9250506020613df985828601613dae565b9150509250929050565b600080fd5b7f4e487b7100000000000000000000000000000000000000000000000000000000600052604160045260246000fd5b613e408261366b565b810181811067ffffffffffffffff82111715613e5f57613e5e613e08565b5b80604052505050565b6000613e726134f3565b9050613e7e8282613e37565b919050565b600067ffffffffffffffff821115613e9e57613e9d613e08565b5b613ea78261366b565b9050602081019050919050565b82818337600083830152505050565b6000613ed6613ed184613e83565b613e68565b905082815260208101848484011115613ef257613ef1613e03565b5b613efd848285613eb4565b509392505050565b600082601f830112613f1a57613f196137f2565b5b8135613f2a848260208601613ec3565b91505092915050565b60008060008060808587031215613f4d57613f4c6134fd565b5b6000613f5b8782880161374a565b9450506020613f6c8782880161374a565b9350506040613f7d878288016135e3565b925050606085013567ffffffffffffffff811115613f9e57613f9d613502565b5b613faa87828801613f05565b91505092959194509250565b600061014082019050613fcc600083018d613598565b613fd9602083018c613598565b613fe6604083018b613ae0565b613ff3606083018a613aef565b6140006080830189613aef565b61400d60a0830188613aef565b61401a60c0830187613709565b81810360e083015261402c818661367c565b9050818103610100830152614041818561367c565b9050818103610120830152614056818461367c565b90509b9a5050505050505050505050565b6000806040838503121561407e5761407d6134fd565b5b600061408c8582860161374a565b925050602061409d8582860161374a565b9150509250929050565b7f4e487b7100000000000000000000000000000000000000000000000000000000600052603260045260246000fd5b7f4f6e6c79204f776e6572206861732074686520617574686f7269747920746f2060008201527f70726f62652041737365742c2050726f63657373205265766572736564000000602082015250565b6000614132603d83613630565b915061413d826140d6565b604082019050919050565b6000602082019050818103600083015261416181614125565b9050919050565b7f4e487b7100000000000000000000000000000000000000000000000000000000600052602260045260246000fd5b600060028204905060018216806141af57607f821691505b6020821081036141c2576141c1614168565b5b50919050565b7f4552433732313a20617070726f76616c20746f2063757272656e74206f776e6560008201527f7200000000000000000000000000000000000000000000000000000000000000602082015250565b6000614224602183613630565b915061422f826141c8565b604082019050919050565b6000602082019050818103600083015261425381614217565b9050919050565b7f4552433732313a20617070726f76652063616c6c6572206973206e6f7420746f60008201527f6b656e206f776e6572206f7220617070726f76656420666f7220616c6c000000602082015250565b60006142b6603d83613630565b91506142c18261425a565b604082019050919050565b600060208201905081810360008301526142e5816142a9565b9050919050565b7f20417373657420697320756e646572676f696e67204e65676f74696174696f6e600082015250565b6000614322602083613630565b915061432d826142ec565b602082019050919050565b6000602082019050818103600083015261435181614315565b9050919050565b7f596f752063616e6e6f742062757920796f7572204173736574206f7220496e6360008201527f6f7272656374207061796d656e7420616d6f756e742000000000000000000000602082015250565b60006143b4603683613630565b91506143bf82614358565b604082019050919050565b600060208201905081810360008301526143e3816143a7565b9050919050565b60008190508160005260206000209050919050565b60006020601f8301049050919050565b600082821b905092915050565b60006008830261444c7fffffffffffffffffffffffffffffffffffffffffffffffffffffffffffffffff8261440f565b614456868361440f565b95508019841693508086168417925050509392505050565b6000819050919050565b600061449361448e614489846135c2565b61446e565b6135c2565b9050919050565b6000819050919050565b6144ad83614478565b6144c16144b98261449a565b84845461441c565b825550505050565b600090565b6144d66144c9565b6144e18184846144a4565b505050565b5b81811015614505576144fa6000826144ce565b6001810190506144e7565b5050565b601f82111561454a5761451b816143ea565b614524846143ff565b81016020851015614533578190505b61454761453f856143ff565b8301826144e6565b50505b505050565b600082821c905092915050565b600061456d6000198460080261454f565b1980831691505092915050565b6000614586838361455c565b9150826002028217905092915050565b61459f82613625565b67ffffffffffffffff8111156145b8576145b7613e08565b5b6145c28254614197565b6145cd828285614509565b600060209050601f83116001811461460057600084156145ee578287015190505b6145f8858261457a565b865550614660565b601f19841661460e866143ea565b60005b8281101561463657848901518255600182019150602085019450602081019050614611565b86831015614653578489015161464f601f89168261455c565b8355505b6001600288020188555050505b505050505050565b600060a08201905061467d6000830188613709565b61468a6020830187613709565b6146976040830186613aef565b6146a46060830185613aef565b6146b16080830184613598565b9695505050505050565b7f4552433732313a2063616c6c6572206973206e6f7420746f6b656e206f776e6560008201527f72206f7220617070726f76656400000000000000000000000000000000000000602082015250565b6000614717602d83613630565b9150614722826146bb565b604082019050919050565b600060208201905081810360008301526147468161470a565b9050919050565b7f596f7520617265206e6f7420746865206275796572206f66207468697320617360008201527f7365740000000000000000000000000000000000000000000000000000000000602082015250565b60006147a9602383613630565b91506147b48261474d565b604082019050919050565b600060208201905081810360008301526147d88161479c565b9050919050565b6000815490506147ee81614197565b9050919050565b8181036148035750506148db565b61480c826147df565b67ffffffffffffffff81111561482557614824613e08565b5b61482f8254614197565b61483a828285614509565b6000601f8311600181146148695760008415614857578287015490505b614861858261457a565b8655506148d4565b601f198416614877876143ea565b9650614882866143ea565b60005b828110156148aa57848901548255600182019150600185019450602081019050614885565b868310156148c757848901546148c3601f89168261455c565b8355505b6001600288020188555050505b5050505050505b565b60006040820190506148f26000830185613ae0565b6148ff6020830184613ae0565b9392505050565b600081905092915050565b600061491d8385614906565b935061492a838584613eb4565b82840190509392505050565b6000614943828486614911565b91508190509392505050565b7f417373657420616c726561647920657869737400000000000000000000000000600082015250565b6000614985601383613630565b91506149908261494f565b602082019050919050565b600060208201905081810360008301526149b481614978565b9050919050565b60006149c78385613630565b93506149d4838584613eb4565b6149dd8361366b565b840190509392505050565b60006080820190506149fd6000830188613709565b8181036020830152614a108186886149bb565b9050614a1f6040830185613aef565b614a2c6060830184613aef565b9695505050505050565b7f4552433732313a20696e76616c696420746f6b656e2049440000000000000000600082015250565b6000614a6c601883613630565b9150614a7782614a36565b602082019050919050565b60006020820190508181036000830152614a9b81614a5f565b9050919050565b7f4552433732313a2061646472657373207a65726f206973206e6f74206120766160008201527f6c6964206f776e65720000000000000000000000000000000000000000000000602082015250565b6000614afe602983613630565b9150614b0982614aa2565b604082019050919050565b60006020820190508181036000830152614b2d81614af1565b9050919050565b7f6f6e6c7920746865206f776e65722063616e2072656c65617365204173736574600082015250565b6000614b6a602083613630565b9150614b7582614b34565b602082019050919050565b60006020820190508181036000830152614b9981614b5d565b9050919050565b7f417373657420697320756e646572676f696e67204e65676f74696174696f6e00600082015250565b6000614bd6601f83613630565b9150614be182614ba0565b602082019050919050565b60006020820190508181036000830152614c0581614bc9565b9050919050565b7f4f6e6c79207468652062757965722063616e2063616c6c20746869732066756e60008201527f6374696f6e000000000000000000000000000000000000000000000000000000602082015250565b6000614c68602583613630565b9150614c7382614c0c565b604082019050919050565b60006020820190508181036000830152614c9781614c5b565b9050919050565b600081549050614cad81614197565b9050919050565b60008190508160005260206000209050919050565b818103614cd7575050614daf565b614ce082614c9e565b67ffffffffffffffff811115614cf957614cf8613e08565b5b614d038254614197565b614d0e828285614509565b6000601f831160018114614d3d5760008415614d2b578287015490505b614d35858261457a565b865550614da8565b601f198416614d4b87614cb4565b9650614d56866143ea565b60005b82811015614d7e57848901548255600182019150600185019450602081019050614d59565b86831015614d9b5784890154614d97601f89168261455c565b8355505b6001600288020188555050505b5050505050505b565b60008154614dbe81614197565b614dc88186613630565b94506001821660008114614de35760018114614df957614e2c565b60ff198316865281151560200286019350614e2c565b614e02856143ea565b60005b83811015614e2457815481890152600182019150602081019050614e05565b808801955050505b50505092915050565b600060a082019050614e4a6000830188613709565b614e576020830187613709565b614e646040830186613aef565b8181036060830152614e768185614db1565b9050614e856080830184613aef565b9695505050505050565b6000614e9a82613625565b614ea48185614906565b9350614eb4818560208601613641565b80840191505092915050565b6000614ecc8285614e8f565b9150614ed88284614e8f565b91508190509392505050565b600081905092915050565b50565b6000614eff600083614ee4565b9150614f0a82614eef565b600082019050919050565b6000614f2082614ef2565b9150819050919050565b7f4661696c656420746f2073656e64204574686572000000000000000000000000600082015250565b6000614f60601483613630565b9150614f6b82614f2a565b602082019050919050565b60006020820190508181036000830152614f8f81614f53565b9050919050565b7f5265656e7472616e637947756172643a207265656e7472616e742063616c6c00600082015250565b6000614fcc601f83613630565b9150614fd782614f96565b602082019050919050565b60006020820190508181036000830152614ffb81614fbf565b9050919050565b7f4552433732313a207472616e736665722066726f6d20696e636f72726563742060008201527f6f776e6572000000000000000000000000000000000000000000000000000000602082015250565b600061505e602583613630565b915061506982615002565b604082019050919050565b6000602082019050818103600083015261508d81615051565b9050919050565b7f4552433732313a207472616e7366657220746f20746865207a65726f2061646460008201527f7265737300000000000000000000000000000000000000000000000000000000602082015250565b60006150f0602483613630565b91506150fb82615094565b604082019050919050565b6000602082019050818103600083015261511f816150e3565b9050919050565b7f4552433732313a20617070726f766520746f2063616c6c657200000000000000600082015250565b600061515c601983613630565b915061516782615126565b602082019050919050565b6000602082019050818103600083015261518b8161514f565b9050919050565b7f4552433732313a207472616e7366657220746f206e6f6e20455243373231526560008201527f63656976657220696d706c656d656e7465720000000000000000000000000000602082015250565b60006151ee603283613630565b91506151f982615192565b604082019050919050565b6000602082019050818103600083015261521d816151e1565b9050919050565b7f4e487b7100000000000000000000000000000000000000000000000000000000600052601260045260246000fd5b600081519050919050565b600082825260208201905092915050565b600061527a82615253565b615284818561525e565b9350615294818560208601613641565b61529d8161366b565b840191505092915050565b60006080820190506152bd6000830187613709565b6152ca6020830186613709565b6152d76040830185613aef565b81810360608301526152e9818461526f565b905095945050505050565b60008151905061530381613533565b92915050565b60006020828403121561531f5761531e6134fd565b5b600061532d848285016152f4565b91505092915050565b7f4552433732313a206d696e7420746f20746865207a65726f2061646472657373600082015250565b600061536c602083613630565b915061537782615336565b602082019050919050565b6000602082019050818103600083015261539b8161535f565b9050919050565b7f4552433732313a20746f6b656e20616c7265616479206d696e74656400000000600082015250565b60006153d8601c83613630565b91506153e3826153a2565b602082019050919050565b60006020820190508181036000830152615407816153cb565b905091905056fea2646970667358221220cf9e8edbfa7275d8fb13d087658e57d54e19faa3711e7a477ea21bbb39f20fdc64736f6c63430008110033",
  "linkReferences": {},
  "deployedLinkReferences": {}
}